:020000040800F2
:1000000000000220611B0008A1190008A7190008C0
:10001000AD190008B3190008B91900080000000064
:10002000000000000000000000000000BF190008F0
:10003000CD19000800000000DB190008E9190008CC
:10004000B11B0008B11B0008B11B0008B11B000860
:10005000B11B0008B11B0008B11B0008B11B000850
:10006000B11B0008B11B0008B11B0008B11B000840
:10007000B11B0008B11B0008B11B0008B11B000830
:10008000B11B0008B11B0008B11B000800000000F4
:10009000000000000000000000000000B11B00088C
:1000A000B11B0008890F0008B11B0008150F0008DC
:1000B0009D0500080D07000879190008B11B00080C
:1000C000B11B0008B11B0008B11B0008B11B0008E0
:1000D000B11B0008B11B0008B11B000800000000A4
:1000E000B11B0008B11B0008B11B00080000000094
:1000F000000000000000000000000000B11B00082C
:1001000000000000B11B0008B11B0008B11B000873
:1001100000000000000000000000000000000000DF
:10012000B11B0008B11B0008B11B0008B11B00087F
:10013000B11B0008000000000000000000000000EB
:10014000000000000000000000000000B11B0008DB
:10015000B11B0008B11B0008B11B0008E50800082E
:10016000B11B0008B11B00080000000000000000E7
:10017000000000000000000000000000000000007F
:1001800000000000B11B000800000000000000009B
:08019000B11B0008B11B0008BF
:1001A00010B5054C237833B9044B13B10448AFF3B1
:1001B00000800123237010BD7000002000000000AB
:1001C000DC2B000808B5034B1BB103490348AFF310
:1001D000008008BD0000000074000020DC2B000837
:1001E000034613F8012B002AFBD1181A0138704777
:1001F00001F0FF01102A2BDB10F0070F08D010F8D8
:10020000013B013A8B422DD010F0070F42B3F6D1DB
:10021000F0B441EA012141EA014122F007047FF0F4
:1002200000070023F0E80256083C85EA010586EA4B
:10023000010685FA47F5A3FA87F586FA47F6A5FA87
:1002400087F68EB9EED1F0BC01F0FF0102F0070293
:1002500032B110F8013B013A83EA010313B1F8D13E
:100260000020704701387047002D06BF354603381F
:10027000073815F0010F07D1013015F4807F02BF58
:10028000013015F4C03F0130F0BC0138704700BFA9
:1002900080B59CB000AF786039600023FB663F48B2
:1002A00000F068FB00F066FA0A2000F0CCF900F0DC
:1002B00075FA3B4800F05EFB0023FB6600F05AFA3B
:1002C00005E001220121374800F094FBF866FB6E3F
:1002D000002B03D1344B1B68002BF2D000F05EFAE8
:1002E000324801F07FFD324800F044FB0023FB66FA
:1002F00000F040FA05E0012201212A4800F07AFBD3
:10030000F866FB6E002B03D1274B1B68002BF2D045
:1003100000F044FA254801F065FD07F108003B684C
:100320007A68244901F066FD07F10803184600F0D9
:1003300021FB0023FB6600F01DFA05E001220121EC
:10034000184800F057FBF866FB6E002B03D1164BE4
:100350001B68002BF2D000F021FA144801F042FD96
:10036000154800F007FB0023FB6600F003FA05E0E8
:10037000012201210B4800F03DFBF866FB6E002BCB
:1003800003D1094B1B68002BF2D000F007FA074895
:1003900001F028FD00BF7037BD4680BDF42B00087A
:1003A000002C0008082C0008DC010020102C00089C
:1003B0001C2C00082C2C0008442C000880B5ADF53E
:1003C0001E7D02AF07F51C73A3F51973186007F5BE
:1003D0001C73A3F51A73196007F51C73A3F51B733F
:1003E0001A600023C7F86C32474800F0C3FA0023B4
:1003F000C7F86C3200F0BEF906E001220021434844
:1004000000F0F8FAC7F86C02D7F86C32002B03D171
:100410003F4B1B68002BF0D000F0C0F907F51C73B0
:10042000A3F51A7307F51C72A2F5197207F5A070EF
:1004300007F51C71A1F51B71096800911B68126812
:10044000344901F0D7FC07F5A0731846FFF7C8FE42
:10045000024607F114033049184601F0CBFC07F1BE
:100460001403184600F086FA0023C7F86C3200F037
:1004700081F906E001220021284800F0BBFAC7F804
:100480006C02D7F86C32002B03D1214B1B68002B78
:10049000F0D000F083F907F5A073184600F06AFA6F
:1004A0000023C7F86C3200F065F906E00022002155
:1004B0001B4800F09FFAC7F86C02D7F86C32002B8B
:1004C00003D1134B1B68002BF0D000F067F9002319
:1004D000C7F86C3200F04EF906E001220021114805
:1004E00000F088FAC7F86C02D7F86C32002B03D101
:1004F000074B1B68002BF0D000F050F900BF07F548
:100500001C77BD4680BD00BF542C0008082C000895
:10051000DC010020802C0008A42C0008B42C00086A
:10052000B82C0008C42C000880B400AF194B1B6C19
:10053000184A43F0010313644FF080430F229A627C
:100540004FF080430122DA624FF08043DB684FF0C6
:10055000804243F00103D3600F4B502283F81C23E9
:100560000D4B4FF080521A604FF080431B694FF0E3
:10057000804223F0010313614FF080431B684FF06A
:10058000804223F00103136000BFBD465DF8047B89
:10059000704700BF0038024000E100E080B400AFC7
:1005A0000B4B01221A604FF080431B684FF08042D2
:1005B00023F0010313604FF080431B694FF080422A
:1005C00023F00103136100BFBD465DF8047B704753
:1005D000CC01002080B483B000AF78604FF080423F
:1005E0007B68D3620B4B00221A604FF080431B687C
:1005F0004FF0804243F00103136000BF054B1B68BE
:10060000002BFBD000BF00BF0C37BD465DF8047B5C
:10061000704700BFCC01002080B584B000AF786087
:100620000023FB6006E04FF47A70FFF7D3FFFB680E
:100630000133FB60FA687B689A42F4DD00BF00BFBB
:100640001037BD4680BD80B584B000AF7860002310
:10065000FB6006E04FF47A70FFF7DEFFFB680133C2
:10066000FB60FA687B689A42F4DD00BF00BF103778
:10067000BD4680BD80B400AFBFF34F8F00BF064BB7
:10068000DB6803F4E0620449044B1343CB60BFF31F
:100690004F8F00BF00BFFDE700ED00E00400FA054A
:1006A00080B400AF164B1B6C154A43F00203136471
:1006B000144B4FF223429A62124B4FF48042DA629B
:1006C000104BDB680F4A43F00103D3600E4B10223E
:1006D00083F81D230C4B4FF000521A60094B1B6925
:1006E000084A23F001031361064B1B68054A23F0F7
:1006F0000103136000BFBD465DF8047B704700BF77
:10070000003802400004004000E100E080B500AF86
:10071000134B1B680133124A1360124B1B68002BEA
:1007200009D0104B00221A600F4B1B690E4A23F0B0
:100730000103136111E00D4B1B6801330B4A136079
:100740000B4B01221A60084B00221A61074B1B68F1
:100750000A2B01D1FFF78EFF00BF00BF80BD00BF95
:10076000BC0100200000002000040040D80100204F
:10077000DC01002080B400AF074B4FF48042DA6206
:10078000054B1B68044A43F00103136000BFBD46DC
:100790005DF8047B704700BF0004004080B400AFE8
:1007A000094B1B68084A23F001031360064B1B69C1
:1007B000054A23F001031361034B00225A6200BF74
:1007C000BD465DF8047B70470004004080B400AF74
:1007D000404B1B6B3F4A43F0010313633E4B1B68C6
:1007E0003D4A23F4800313603B4B1B683A4A43F4B1
:1007F00000031360384B1B68374A23F08073136083
:10080000354B1B68344A43F000731360324B4FF48E
:1008100008225A622F4B5B6C2E4A43F0200353642C
:100820002C4B5B6A2B4A43F020035362294B5B6AD3
:10083000284A23F020035362284BDB68274A23F021
:100840000C03D360254BDB68244A43F40053D36088
:10085000224B9B68214A1B0C1B0493601F4B9B6817
:100860001E4A43F08B0393601C4BDB681B4A23F446
:100870000043D360194B1B69184A23F4405313619A
:10088000164BDB68154A23F48063D360134B1B6956
:10089000124A23F400631361104BDB680F4A23F400
:1008A0008053D3600D4B5B690C4A23F44073536152
:1008B0000B4B402283F84723094B80229A60074B59
:1008C000DB68064A43F02C03D36000BFBD465DF8E9
:1008D000047B7047003802400000024000140140D1
:1008E00000E100E080B400AF0F4B1B6803F0200371
:1008F000002B13D00C4B5A680C4B1B68D1B20C4A1E
:10090000D1540A4B1B680133084A1360074B1B681C
:10091000B3F5967F02D1054B00221A6000BFBD4699
:100920005DF8047B704700BF00140140B80100204F
:100930008C00002080B483B000AF0346FB7100BF81
:100940000B4B1B6803F08003002BF9D0084AFB799E
:10095000536000BF064B1B6803F04003002BF9D027
:1009600000BF00BF0C37BD465DF8047B704700BF79
:100970000014014080B584B000AF78600023FB60B4
:100980007868FFF72DFC0346BB6009E0FB687A68D6
:1009900013441B781846FFF7CDFFFB680133FB605B
:1009A000FA68BB689A42F1DB00BF00BF1037BD4652
:1009B00080BD000080B582B000AF00237B6007E0FF
:1009C0000A4A7B68134400221A707B6801337B60FB
:1009D0007B68B3F5967FF3DB054B00221A60C820D5
:1009E000FFF71AFE00BF0837BD4680BD8C0000200F
:1009F000B801002080B588B000AFF860B9607A60B7
:100A00000023FB610023BB6100237B6102E0FB69E3
:100A10000133FB61BB69FA6813441A782A49FB6900
:100A20000B441B789A42F2D139E0274AFB69134400
:100A30001A78264B1A70BB69FA6813441A78244B4B
:100A40001A70C820FFF7E8FDBB68002B02D0012018
:100A5000FFF7F9FDBB690133BB61FB690133FB6142
:100A6000194AFB6913441B78002B05D0BB69FA684F
:100A700013441B78002B02D101237B6109E0BB6981
:100A8000FA6813441A781049FB690B441B789A42A0
:100A9000CBD07B69002B09D1FB690133FB610A4A8A
:100AA000FB6913441B78002BE9D100E000BF7B6990
:100AB000002B04D07B68002B01D0FFF77BFF7B6904
:100AC00018462037BD4680BD8C000020C0010020A4
:100AD000C101002080B500AF764B00221A60764B32
:100AE00000221A60754B00221A60754B00221A60B2
:100AF000744B00221A60744B1B68744AA2FB0323D8
:100B00001B0907EE903AF8EE677A714BC3ED007A55
:100B10006F4B93ED007AF7EE006AC6EE877A6D4B65
:100B2000C3ED007AFFF752FE00F086FAFFF7FCFCF7
:100B3000FFF7B6FD684B40F2CD721A600520FFF753
:100B400082FD654B40F6B5321A6064496448FFF790
:100B50009FFB00F0DBF800F01BF9624B00221A60EB
:100B6000544B1B68002BF8D0544B1B685E4A136033
:100B7000544B1B68002B03D1524B01221A608DE0AD
:100B8000504B1B68012B40F089804E4B00221A60AD
:100B9000494B1B68554A1360534B1A68484B1B68F6
:100BA000D21A524B1B681B04134407EE903AB8EE5E
:100BB000677A484BD3ED007A67EE277A4C4BC3ED4A
:100BC000007A4B4BD3ED007A9FED4A7A67EE877A35
:100BD000494BC3ED007A484BD3ED007AB0EE007A72
:100BE00077EEC77AB1EE047A67EE877AFDEEE77AA0
:100BF00017EE902A414B1A60414B1B68002B16D010
:100C00003F4B1B68013B3E4A13603C4B1B68324A1A
:100C100013601420FFF717FD334B1B68284A13603D
:100C2000244B00221A60244B00221A6040E0334B10
:100C30001B68294A1360314B1B68324A13602F4BE3
:100C40001B68B3F57A7F03DC022000F041FE10E060
:100C50002A4B1B68B3F57A7F08DD284B1B68B3F578
:100C60007A6F03DC012000F033FE02E0002000F088
:100C70002FFE224B1B681A4601212348FFF79EFBDB
:100C8000184B1B68002B02D11420FFF7DCFC164B1D
:100C90001B680B4A136000F07BF809E0124B1B68DD
:100CA000074A1360034B00221A60034B00221A60AC
:100CB00053E700BFC4010020C8010020E00100206C
:100CC000E4010020F00100200C000020D34D621050
:100CD000F4010020F8010020BC010020CC2C000809
:100CE000DC2C0008DC0100200402002000020020AF
:100CF000E801002000007A44EC010020FC01002003
:100D00000800002004000020E02C000880B400AFA0
:100D10001D4B1B6B1C4A43F0010313631B4B1B68E9
:100D20001A4A43F400231360184B1B68174A23F434
:100D300080231360154B5B6A144A23F080035362CF
:100D4000124B5B6A114A23F0400353620F4B5B6AFC
:100D50000E4A23F0200353620C4B5B6A0B4A43F0AC
:100D600010035362094BDB68084A23F40023D36065
:100D7000064BDB68054A23F48023D36000BFBD46E1
:100D80005DF8047B704700BF00380240000002405D
:100D900080B400AF594B00221A60594B00221A60F0
:100DA000584B01221A60584B5B6A574A43F00103C3
:100DB0005362554B5B6A544A23F001035362524B12
:100DC0005B6C514A43F001035364504B1B684F4A1C
:100DD00023F0400313604D4B1B684C4A23F0200363
:100DE00013604A4B1B68494A23F010031360474BBA
:100DF000F9229A62454B4FF6FF72DA62434B9B69C8
:100E0000424A23F400739361404B9B693F4A43F489
:100E1000807393613D4B9B693C4A23F4004393618B
:100E20003A4B9B69394A23F480439361374B9B6962
:100E3000364A43F400539361344B9B69334A23F49D
:100E400080539361314B9B69304A23F40063936173
:100E50002E4B9B692D4A23F4806393612B4B1B6AB5
:100E60002A4A43F010031362284B5B69274A43F078
:100E700001035361254B1B68244A43F001031360AF
:100E8000224BDB68214A43F00403D3601F4BDB682D
:100E90001E4A43F00103D3601C4B1B691B4A23F01D
:100EA00004031361194B1B69184A23F001031361F2
:100EB000174B202283F81B23154B302283F819236C
:100EC000134B1B68124A43F000631360104B1B68FE
:100ED0000F4A43F0007313600C4B1B6A0B4A23F05C
:100EE00080031362094B1B6A084A23F02003136234
:100EF00000BFBD465DF8047B704700BFC401002001
:100F0000C8010020D001002000380240000001404C
:100F100000E100E080B400AF174B1B6903F004034D
:100F2000002B23D0154B01221A60134B9B6B144AE4
:100F30001360114B1B69104A23F004031361114B1A
:100F40001B68012B09D10F4B00221A600A4B1B6A48
:100F5000094A43F02003136208E00A4B01221A6099
:100F6000054B1B6A044A23F02003136200BFBD46F1
:100F70005DF8047B704700BF00000140C401002001
:100F8000E0010020D001002080B400AF0A4B1B69B3
:100F900003F00103002B0AD0084B1B680133074AFA
:100FA0001360054B1B69044A23F00103136100BF62
:100FB000BD465DF8047B704700000140C801002079
:100FC00080B400AF194B1B6C184A43F00403136440
:100FD000174B40F23F629A62154B0422DA62144BBF
:100FE000DB68134A43F00103D360124B602283F89D
:100FF0001E23104B1B680F4A43F0804313600C4BB9
:101000001B690B4A23F001031361094B5B69084A12
:1010100043F001035361064B1B68054A43F001038B
:10102000136000BFBD465DF8047B70470038024086
:101030000008004000E100E080B500AFFFF7C0FF0E
:10104000984B1B6B974A43F001031363954B1B6B43
:10105000944A43F002031363924B1B6B914A43F093
:1010600004031363904B1B688F4A23F00203136041
:101070008D4B1B688C4A43F0010313608A4B5B68FD
:10108000894A23F001035360874B5B69864A43F02A
:1010900001035361854B1B68844A23F4006313608A
:1010A000824B1B68814A43F4806313607F4B5B680B
:1010B0007E4A23F0200353607C4B5B697B4A43F0FC
:1010C00020035361794B1B68784A23F40073136043
:1010D000764B1B68754A43F480731360734B5B68EF
:1010E000724A23F010035360704B5B696F4A43F000
:1010F000100353616C4B1B686B4A23F008031360A9
:10110000694B1B68684A43F004031360664B5B68D5
:10111000654A23F002035360634B5B69624A43F004
:1011200002035361614B1B68604A23F08003136024
:101130005E4B1B685D4A43F0400313605B4B5B688A
:101140005A4A23F008035360584B5B69574A23F00F
:1011500008035361544B1B68534A23F40033136054
:10116000514B1B68504A43F4803313604E4B5B680D
:101170004D4A23F4807353604B4B5B694A4A23F416
:10118000807353614A4B1B68494A23F00203136082
:10119000474B1B68464A43F001031360444B5B68AE
:1011A000434A23F001035360414B5B69404A23F0FB
:1011B000010353613E4B1B683D4A23F00803136053
:1011C0003B4B1B683A4A43F004031360384B5B689F
:1011D000374A23F002035360354B5B69344A23F0EE
:1011E00002035361314B1B68304A23F00203136042
:1011F0002E4B1B682D4A43F0010313602B4B5B6899
:101200002A4A23F001035360284B5B69274A23F0E5
:1012100001035361254B1B68244A23F40013136018
:10122000224B1B68214A43F4801313601F4B5B68F9
:101230001E4A23F4806353601C4B5B691B4A23F4F2
:1012400080635361184B1B68174A23F400731360C3
:10125000154B1B68144A43F480731360124B5B6890
:10126000114A23F0100353600F4B5B690E4A23F0C1
:10127000100353610E4B1B680D4A23F400231360C7
:101280000B4B1B680A4A43F480231360084B5B68CE
:10129000074A23F002035360054B5B69044A23F4B9
:1012A000007307E0003802400000024000040240E2
:1012B000000802405361194B1B68184A23F400339D
:1012C0001360164B1B68154A43F480331360134BAD
:1012D0005B68124A23F002035360104B5B690F4AAC
:1012E00023F4807353610D4B1B680C4A23F40023D5
:1012F00013600A4B1B68094A43F480231360074BB1
:101300005B68064A23F002035360044B5B69034A9F
:1013100023F40073536100BF80BD00BF000402408E
:1013200080B489B000AF78607B6842F20F7293425C
:1013300003DD42F20F737B6004E07B68002B01DA6F
:1013400000237B607B68A04A82FB03129211DB17AB
:10135000D21A9E4B83FB02139910D317C91A0B465E
:101360009B000B445B00D31A7B617B68984A82FB2D
:1013700003125211DB17D21A944B83FB02139910FC
:10138000D317C91A0B469B000B445B00D31A3B6171
:101390007B688E4A82FB03129210DB17D21A8B4BAA
:1013A00083FB02139910D317C91A0B469B000B44F9
:1013B0005B00D31AFB607A68844B83FB021399109D
:1013C000D317C91A0B469B000B445B00D31ABB60B2
:1013D0000023FB617F4B1B68032B00F2838001A27B
:1013E00052F823F0F5130008311400086D140008BA
:1013F000A91400087B69FB61774B5B69764A23F08F
:1014000001035361754B5B69744A43F020035361D8
:10141000724B5B69714A43F0100353616E4B5B6919
:101420006D4A43F0020353616A4B03221A6059E08C
:101430003B69FB61684B5B69674A43F00103536199
:10144000664B5B69654A23F020035361634B5B691C
:10145000624A43F0100353615F4B5B695E4A43F09D
:10146000020353615B4B00221A603BE0FB68FB61A7
:10147000594B5B69584A43F001035361574B5B6911
:10148000564A43F020035361544B5B69534A23F09F
:1014900010035361504B5B694F4A43F002035361A1
:1014A0004C4B01221A601DE0BB68FB614A4B5B6933
:1014B000494A43F001035361484B5B69474A43F093
:1014C00020035361454B5B69444A43F01003536169
:1014D000414B5B69404A23F0020353613D4B0222BA
:1014E0001A6000BFFB69092B00F2DB8101A252F8F0
:1014F00023F000BF1D15000873150008E51500084E
:101500003B16000891160008E71600083D17000872
:1015100093170008E91700084D1800082F4B5B6966
:101520002E4A43F0080353612B4B5B692A4A43F46C
:10153000807353612A4B5B69294A43F0010353616D
:10154000274B5B69264A43F002035361234B5B69D7
:10155000224A43F001035361204B5B691F4A43F465
:10156000806353611C4B5B691B4A23F0100353617A
:1015700097E11A4B5B69194A23F008035361164B34
:101580005B69154A43F480735361154B5B69144AD8
:1015900043F001035361124B5B69114A23F00203CC
:1015A00053610E4B5B690D4A23F0010353610B4BF2
:1015B0005B690A4A23F480635361074B5B69064AFF
:1015C00023F0100353616CE1D34D621067666666C9
:1015D0001F85EB51D40100200000024000040240AE
:1015E00000080240964B5B69954A43F0080353613B
:1015F000944B5B69934A43F480735361924B5B69EC
:10160000914A23F0010353618F4B5B698E4A43F08B
:10161000020353618A4B5B69894A43F001035361BA
:10162000874B5B69864A23F480635361854B5B6912
:10163000844A43F01003536133E1814B5B69804A74
:1016400043F0080353617F4B5B697E4A43F4807328
:1016500053617D4B5B697C4A43F0010353617A4BD4
:101660005B69794A43F002035361754B5B69744AC5
:1016700023F001035361724B5B69714A23F4806369
:101680005361704B5B696F4A43F01003536108E18B
:101690006B4B5B696A4A23F008035361694B5B69D2
:1016A000684A43F480735361674B5B69664A43F051
:1016B00001035361644B5B69634A23F00203536186
:1016C0005F4B5B695E4A23F0010353615C4B5B69CE
:1016D0005B4A43F4806353615A4B5B69594A43F058
:1016E00010035361DDE0564B5B69554A43F0080334
:1016F0005361544B5B69534A23F480735361524BDB
:101700005B69514A43F0010353614F4B5B694E4A99
:1017100043F0020353614A4B5B69494A23F00103DA
:101720005361474B5B69464A43F480635361454BC1
:101730005B69444A43F010035361B2E0404B5B697C
:101740003F4A43F0080353613E4B5B693D4A23F433
:10175000807353613C4B5B693B4A43F00103536127
:10176000394B5B69384A43F002035361344B5B6980
:10177000334A43F001035361314B5B69304A43F410
:10178000806353612F4B5B692E4A43F01003536112
:1017900087E02B4B5B692A4A43F008035361294BCE
:1017A0005B69284A43F480735361274B5B69264A7F
:1017B00043F001035361244B5B69234A23F0020386
:1017C00053611F4B5B691E4A23F0010353611C4B9D
:1017D0005B691B4A23F4806353611A4B5B69194AA6
:1017E00023F0100353615CE0154B5B69144A43F02E
:1017F00008035361134B5B69124A43F480735361CE
:10180000114B5B69104A43F0010353610E4B5B6956
:101810000D4A43F002035361094B5B69084A43F0E8
:1018200001035361064B5B69054A43F480635361CE
:10183000044B5B69034A43F01003536131E000BF7E
:101840000004024000000240000802401D4B5B699A
:101850001C4A43F0080353611B4B5B691A4A43F46B
:1018600080735361194B5B69184A43F0010353615C
:10187000164B5B69154A43F002035361114B5B69D8
:10188000104A23F0010353610E4B5B690D4A43F488
:10189000806353610C4B5B690B4A43F01003536147
:1018A00000BF0023BB6102E0BB690133BB61BB69C0
:1018B000B3F57A7FF8DB00BF00BF2437BD465DF883
:1018C000047B704700040240000002400008024010
:1018D00080B483B000AF78607B68022B2FD07B6828
:1018E000022B3FDC7B68002B03D07B68012B13D0DD
:1018F00038E01F4B5B691E4A23F4007353611D4B94
:101900005B691C4A23F4807353611A4B5B69194A63
:1019100043F40073536125E0154B5B69144A23F4CB
:1019200000735361134B5B69124A43F48073536134
:10193000104B5B690F4A23F40073536112E00C4BA8
:101940005B690B4A43F4007353610A4B5B69094AB4
:1019500023F480735361074B5B69064A23F40073D9
:10196000536100BF00BF0C37BD465DF8047B704774
:10197000000802400004024080B500AF064B1B681F
:101980001846FFF7CDFC054B1B69044A23F0010301
:10199000136100BF80BD00BF0400002000080040AC
:1019A00080B400AFFEE780B400AFFEE780B400AFC4
:1019B000FEE780B400AFFEE780B400AFFEE780B47E
:1019C00000AF00BFBD465DF8047B704780B400AF38
:1019D00000BFBD465DF8047B704780B400AF00BF18
:1019E000BD465DF8047B704780B500AF00F0E2F8BB
:1019F00000BF80BD80B586B000AFF860B9607A6086
:101A000000237B610AE0AFF300800146BB685A1CEB
:101A1000BA60CAB21A707B6901337B617A697B68EC
:101A20009A42F0DB7B6818461837BD4680BD80B50A
:101A300086B000AFF860B9607A6000237B6109E08E
:101A4000BB685A1CBA601B781846AFF300807B69EC
:101A500001337B617A697B689A42F1DB7B681846C7
:101A60001837BD4680BD80B483B000AF78604FF0BA
:101A7000FF3318460C37BD465DF8047B704780B4D1
:101A800083B000AF786039603B684FF400525A6011
:101A9000002318460C37BD465DF8047B704780B4C0
:101AA00083B000AF7860012318460C37BD465DF85F
:101AB000047B704780B485B000AFF860B9607A608D
:101AC000002318461437BD465DF8047B70470000BC
:101AD00080B586B000AF7860144A154BD31A7B618D
:101AE0007B693B61134B1B68002B02D1114B124ADF
:101AF0001A60104B1A687B6813443A699A4207D2FD
:101B000000F0BEFA03460C221A604FF0FF3309E0E2
:101B1000084B1B68FB60074B1A687B681344054A37
:101B20001360FB6818461837BD4680BD00000220D0
:101B300000040000080200206003002080B400AF11
:101B4000064BD3F88830054A43F47003C2F8883056
:101B500000BFBD465DF8047B704700BF00ED00E0AC
:101B6000DFF834D00D480E490E4A002302E0D45865
:101B7000C4500433C4188C42F9D30B4A0B4C0023D5
:101B800001E013600432A242FBD3FFF7D7FF00F05D
:101B90007DFAFEF79FFF7047000002200000002042
:101BA000700000202C2D0008700000205C03002035
:101BB000FEE7000080B400AF064B1B781A46064BC8
:101BC0001B681344044A136000BFBD465DF8047BE4
:101BD000704700BF100000200C020020002310B549
:101BE0000446C0E90033C0E9043383608181436661
:101BF000C2818361194608225C3000F0F3F9054B7D
:101C00006362054BA362054BE362054B24622363C9
:101C100010BD00BF351E0008571E00088F1E0008AB
:101C2000B31E0008024A0349034800F069B800BF28
:101C300014000020A52900082000002041680C4B5A
:101C4000994210B5044601D000F0ACFEA168094BE2
:101C5000994202D0204600F0A5FEE168064B994269
:101C600004D02046BDE8104000F09CBE10BD00BF6F
:101C70001002002078020020E002002010B50B4B7B
:101C80000B4C0C4A1A60204600220421FFF7A6FFE5
:101C900004F1680001220921FFF7A0FF04F1D00040
:101CA0000222BDE810401221FFF798BF4803002030
:101CB00010020020251C0008014800F00BBA00BFEC
:101CC00051030020014800F006BA00BF5103002074
:101CD00010B50446FFF7F0FF236A1BB1BDE81040C2
:101CE000FFF7F0BF044B2362044B1B68002BF5D1B8
:101CF000FFF7C4FFF2E700BF3D1C000848030020C7
:101D00002DE9F8430746884614460026D4E9019594
:101D1000B9F1010905D52468002CF7D13046BDE89A
:101D2000F883AB89012B07D9B5F90E30013303D005
:101D300029463846C04706436835E9E7036A70B567
:101D4000846805460E460BB9FFF7C2FF636EDB07DA
:101D500005D4A389980502D4A06D00F0BBF9A3892E
:101D6000190713D523698BB1013EA36816F8011F2B
:101D7000013BA360E9B9002B2EDA22460A2128464E
:101D800000F09BF8013007D00A2507E021462846DD
:101D900000F0D0F80028E7D04FF0FF35636EDA0787
:101DA00005D4A3899B0502D4A06D00F094F92846C0
:101DB00070BD002B04DAA2699A4206DC0A2904D01D
:101DC00023685A1C22601970CFE72246284600F08B
:101DD00074F80130C9D1DFE723680A255A1C226054
:101DE0001D70DBE7024B01461868FFF7A7BF00BF75
:101DF0006C0000200EB400B59CB01DAB02900690A4
:101E00006FF00041094807910491094953F8042BE8
:101E100005910068019302A900F0B0FA029B00222C
:101E20001A701CB05DF804EB03B070476C00002022
:101E30000802FFFF10B50C46B1F90E1000F0FCF8D7
:101E40000028ABBF636DA3891B1823F48053ACBF7C
:101E50006365A38110BD2DE9F0411F468B89DB0529
:101E600005460C46164605D5B1F90E100223002290
:101E700000F0D0F8A389B4F90E1023F48053A381A5
:101E800032463B462846BDE8F04100F0E7B810B5C1
:101E90000C46B1F90E1000F0BDF8431CA38915BF24
:101EA000606523F4805343F48053A38118BFA3815A
:101EB00010BDB1F90E1000F09DB8F8B50E461446ED
:101EC000054618B1036A0BB9FFF702FFA369A360C7
:101ED000A3891A0725D523691BB323682269981A99
:101EE0006369F6B28342374604DC2146284600F097
:101EF00059FDE0B9A368013BA36023685A1C226026
:101F00001E706269431C9A4204D0A389DB0706D580
:101F10000A2E04D12146284600F044FD38B938463F
:101F2000F8BD2146284600F005F80028D5D04FF02E
:101F3000FF37F4E738B52A4B054618680C4618B148
:101F4000036A0BB9FFF7C4FEA389B4F90C20180784
:101F500022D4D90607D409232B6042F04003A38181
:101F60004FF0FF3034E0580712D5616B41B104F1F6
:101F70004403994202D0284600F0AEF80023636380
:101F8000A38923F02403A3810023636023692360D2
:101F9000A38943F00803A38123694BB9A38903F400
:101FA0002073B3F5007F03D02146284600F048FD9A
:101FB000A089B4F90C2010F001030AD00023A3601B
:101FC00063695B42A361236943B910F08000C4D107
:101FD00038BD810758BF6369A360F4E70020F7E7C5
:101FE0006C00002002440346934200D1704703F87E
:101FF000011BF9E738B5064D0023044608462B605F
:10200000FFF731FD431C02D12B6803B1236038BDBB
:102010004C03002038B5074D0446084611460022FF
:102020002A601A46FFF746FD431C02D12B6803B114
:10203000236038BD4C03002038B5074D04460846E0
:10204000114600222A601A46FFF7D4FC431C02D135
:102050002B6803B1236038BD4C03002038B5074D11
:1020600004460846114600222A601A46FFF7DFFCA4
:10207000431C02D12B6803B1236038BD4C03002000
:10208000014B1868704700BF6C00002070B50D4D03
:102090000D4C641BA4100026A64209D10B4D0C4C1C
:1020A00000F09CFD641BA4100026A64205D170BD63
:1020B00055F8043B98470136EEE755F8043B98473E
:1020C0000136F2E7242D0008242D0008242D0008F5
:1020D000282D00087047704737B5002944D051F8C3
:1020E000043C0190002BA1F10404B8BFE41800F0F7
:1020F000DFF81E4A0198136833B96360146003B0B7
:10210000BDE8304000F0DAB8A34208D9256861196B
:102110008B4201BF19685B6849192160EDE71A46D7
:102120005B680BB1A342FAD911685518A5420BD1CF
:10213000246821445418A3421160E0D11C685B68F4
:1021400053600C441460DAE702D90C230360D6E72D
:10215000256861198B4204BF19685B68636004BF1E
:10216000491921605460CAE703B030BD5403002010
:1021700070B50E4E0C463168054611B900F0D8FC1A
:1021800030602146284600F0D3FC431C0AD0C41C12
:1021900024F00304A04207D0211A284600F0C8FC0E
:1021A000013001D14FF0FF34204670BD58030020AC
:1021B0002DE9F843CD1C25F0030508350C2D38BF5B
:1021C0000C25002D074601DBA94205D90C233B60F5
:1021D00000263046BDE8F883DFF8D08000F068F8CC
:1021E000D8F800301C465CBB29463846FFF7C0FFD4
:1021F000431C044655D1D8F800402646002E45D150
:10220000002C48D023683146384604EB030900F01F
:102210008FFC81453FD121686D1A29463846FFF76A
:10222000A7FF013037D023682B442360D8F8003053
:10223000002B38D05A68A2422BD100225A600FE0FE
:102240002268521B1FD40B2A17D96119A34225609B
:1022500018BF5960636808BFC8F8001062514B602E
:10226000384604F10B0600F029F826F00706231D76
:10227000F21AAED09B1BA350ABE7A3426268DDD13C
:10228000C8F80020ECE723466468ACE7344676687B
:10229000B4E71346CCE70C233B60384600F00EF859
:1022A00097E72560DCE75B60FFDE00BF540300209A
:1022B0000148FFF70FBF00BF500300200148FFF7A0
:1022C0000ABF00BF500300202DE9F0478E681F466B
:1022D000BE420B6882460C4690462CD88A8912F47E
:1022E000906F26D06569096905EB4505A3EB0109E7
:1022F00005EBD5757B1C4B446D109D4238BF1D46C8
:10230000530527D52946FFF753FF064660B32169D9
:102310004A4600F01DFCA38923F4906343F0800338
:10232000A381266165614E44A5EB09052660A56081
:102330003E46BE4200D93E4620683246414600F045
:10234000BBFBA3689B1BA36023683344236000206E
:10235000BDE8F0872A4600F009FC06460028E0D1D7
:1023600021695046FFF7B8FE0C23CAF80030A38954
:1023700043F04003A3814FF0FF30E9E72DE9F04F30
:1023800098468B891B069DB007460D4614460ED510
:102390000B6963B94021FFF70BFF2860286120B962
:1023A0000C233B604FF0FF30D0E040236B610023F3
:1023B000099320238DF82930CDF80C803023DFF8E5
:1023C000A4818DF82A304FF0010923469A4613F86C
:1023D000012B0AB1252AF9D1BAEB040B0BD05B46CD
:1023E000224629463846FFF76FFF013000F0A980EA
:1023F000099A5A4409929AF80030002B00F0A18003
:1024000000234FF0FF32CDE905230AF1010A0493BE
:1024100007938DF853301A935446052214F8011B84
:102420005048FDF7E5FE049AD8B9D00644BF2023F2
:102430008DF85330110744BF2B238DF853309AF891
:1024400000302A2B15D0079A544600204FF00A0C72
:10245000214611F8013B303B092B4DD9B0B1079211
:1024600014E0A0EB080309FA03F313430493A24614
:10247000D2E7039B191D1B680391002BBBBF5B4276
:1024800042F0020207930793B8BF049223782E2BE1
:102490000CD163782A2B34D1039B1A1D1B6803923D
:1024A000002BB8BF4FF0FF3302340593DFF8C4A010
:1024B000217803225046FDF79BFE38B1049BA0EB28
:1024C0000A004022824013430134049314F8011B94
:1024D00025488DF828100622FDF78AFE002838D0FE
:1024E000224B1BBB039B073323F0070308330393E3
:1024F000099B3344099368E70CFB02320C46012028
:10250000A6E700230134059319464FF00A0C204634
:1025100010F8012B303A092A03D9002BC6D00591B7
:10252000C4E70CFB012104460123F0E703AB009351
:102530002A460F4B04A93846AFF30080421C0646DA
:10254000D6D1AB895B063FF52DAF09981DB0BDE82C
:10255000F08F03AB00932A46054B04A9384600F0E0
:1025600079F8EBE7F12C0008FB2C000800000000D4
:10257000C9220008F72C00082DE9F04716469946B5
:102580008A680B69DDF820809342B8BF1346336038
:1025900091F8432007460C460AB1013333602368A3
:1025A000990642BF336802333360256815F006058B
:1025B00006D104F1190AE36832689B1AAB4226DCA3
:1025C00094F84320131E226818BF012392062BD4CF
:1025D00004F1430249463846C04701301ED0236803
:1025E000226903F00603042B02BFE5683368ED1A85
:1025F000A3680CBF25EAE57500259342C4BF9B1A6A
:10260000ED1800261A34B5421AD1002008E0012343
:10261000524649463846C047013003D14FF0FF309B
:10262000BDE8F0870135C6E7E1185A1C302081F873
:102630004300224494F8451082F843100233C7E760
:102640000123224649463846C0470130E6D00136CC
:10265000D9E700002DE9FF470F7E0C9D782F9146AA
:1026600080460C469A4601F1430207D8622F0AD8E9
:10267000002F00F0D480582F00F0C08004F14205F4
:1026800084F842703AE0A7F16303152BF6D801A154
:1026900051F823F0ED260008012700087D260008E8
:1026A0007D2600087D2600087D26000801270008F9
:1026B0007D2600087D2600087D2600087D2600086E
:1026C000052800082D270008BF2700087D260008E0
:1026D0007D260008272800087D2600082D270008F1
:1026E0007D2600087D260008C72700082B681A1DD4
:1026F0001B682A6004F1420584F8423001239FE000
:1027000020682B68070603F10401296001D51E68C3
:1027100003E04606FBD5B3F90060002E03DA2D2353
:10272000764284F843305A480A2312E02B68206826
:10273000191D2960050601D51E6802E04106FBD57A
:102740001E8853486F2F0CBF08230A23002184F8EA
:1027500043106568A560002DA2BF216821F0040127
:1027600021600EB9002D4BD01546B6FBF3F103FBEB
:102770001167C75D05F8017D3746BB420E46F4D9A7
:10278000082B0BD12368DE0708D5236961689942BD
:10279000DEBF302305F8013C05F1FF35521B2261F5
:1027A000CDF800A04B4603AA21464046FFF7E4FEC1
:1027B00001304AD14FF0FF3004B0BDE8F087236804
:1027C00043F0200323603348782784F8457023685A
:1027D00029681F0651F8046B02D45F0648BFB6B2E1
:1027E000DF0748BF43F02003296048BF23601EB9BC
:1027F000236823F0200323601023A7E72448E4E79D
:102800001546BDE72B6826686169181D28603506E6
:102810001B6801D5196002E07006FBD51980002302
:1028200023611546BCE72B681A1D2A601D68626883
:1028300000212846FDF7DCFC08B1401B606063689E
:102840002361002384F84330AAE723692A464946D6
:102850004046D0470130ADD023689B0713D4E068D1
:10286000039B9842B8BF1846A6E701233246494663
:102870004046D04701309DD00135E36803995B1A8B
:10288000AB42F2DCEBE7002504F11906F5E700BFE7
:10289000022D0008132D00088A892DE9F041054614
:1028A00010070C4658D44B68002B05DC0B6C002B32
:1028B00002DC0020BDE8F081E66A002EF9D000239A
:1028C00012F480522F68216A2B6032D0606DA38988
:1028D0005A0705D56368C01A636B0BB1236CC01A25
:1028E00000230246E66A216A2846B047431CA389B2
:1028F00006D129681D292BD8294A0A41D60727D491
:1029000000226260D9042269226004D5421C01D1F0
:102910002B6803B96065616B2F600029C9D004F191
:102920004403994202D02846FFF7D6FB002060639B
:10293000C0E701232846B047411CC8D12B68002BB3
:10294000C5D01D2B01D0162B01D12F60B1E7A38973
:1029500043F04003A381ADE70F69002FA9D093078F
:102960000E6808BF4B690F6018BF0023A6EB07086D
:102970008B60B8F1000F9CDD216AA66A43463A4697
:102980002846B047002806DCA38943F04003A38112
:102990004FF0FF308EE70744A8EB0008E9E700BFDF
:1029A000FEFFBFDF38B50B6905460C4613B900259D
:1029B000284638BD18B1036A0BB9FFF789F9B4F995
:1029C0000C30002BF3D0626ED00704D4990502D4EA
:1029D000A06DFFF77FFB28462146FFF75DFF636E82
:1029E000DA070546E4D4A3899B05E1D4A06DFFF77F
:1029F00072FBDDE770B50C46B1F90E10002996B0F8
:102A000015461E460DDAA38913F0800F4FF0000122
:102A10000CBF4FF480634023002031602B6016B060
:102A200070BD6A4600F062F80028ECDB019901F401
:102A30007041A1F50053594259414FF48063EBE7CF
:102A40008B8973B59D0706460C4607D504F14703ED
:102A5000236023610123636102B070BD01AB6A464C
:102A6000FFF7C8FF009905463046FFF7A1FB48B9BC
:102A7000B4F90C309A05EFD423F0030343F00203BA
:102A8000A381E3E7A389206043F08003A381009B37
:102A90006361019B20615BB1B4F90E10304600F018
:102AA00037F828B1A38923F0030343F00103A3817E
:102AB000A3891D43A581CFE7884210B501EB02042D
:102AC00002D98442234607D8431EA14208D011F8F8
:102AD000012B03F8012FF8E7024401468A4200D196
:102AE00010BD13F8014D02F8014DF7E738B5074D59
:102AF00000230446084611462B60FEF7C0FF431C26
:102B000002D12B6803B1236038BD00BF4C03002005
:102B100038B5064D0023044608462B60FEF7BFFF7C
:102B2000431C02D12B6803B1236038BD4C03002045
:102B300038B5064D0023044608462B60FEF7C8FF53
:102B4000431C02D12B6803B1236038BD4C03002025
:102B50000A44914200F1FF3300D1704710B511F8DB
:102B6000014B03F8014F9142F9D110BD2DE9F0411D
:102B7000804614460E4621B9BDE8F0411146FFF7E4
:102B800017BB2AB9FFF7A8FA25462846BDE8F08109
:102B900000F01BF88442074602D8B4EB500F12D85D
:102BA00021464046FFF704FB05460028EDD0BC4215
:102BB0002246314628BF3A46FFF7CAFF3146404613
:102BC000FFF78AFAE1E73546DFE751F8043C181FC2
:102BD000002BBCBF0B58C01870470000F8B500BFF1
:102BE000F8BC08BC9E467047F8B500BFF8BC08BCEE
:042BF0009E46704746
:102BF40041542B5253540D0A0000000041540D0A55
:102C0400000000004F4B0D0A00000000636865637C
:102C14006B706F696E74000041542B43574D4F44E1
:102C2400453D310D0A00000041542B43574A4150A1
:102C34003D222573222C222573220D0A0000000058
:102C440041542B4349504D55583D300D0A00000066
:102C540041542B43495053544152543D2254435000
:102C6400222C223138342E3130362E3135332E3168
:102C74003439222C38300D0A000000004745542016
:102C84002F7570646174653F6170695F6B65793D30
:102C94002573266669656C6425643D25750D0A00F7
:102CA40041542B43495053454E443D25640D0A007D
:102CB4003E00000053454E44204F4B0D0A000000D7
:102CC400434C4F53454400006D616D616D6F7061FD
:102CD4007373776F726400006F776F0049444D36E9
:102CE4004C30415345474B4E5956304600232D3006
:102CF4002B2000686C4C0065666745464700303100
:102D0400323334353637383941424344454600304E
:102D1400313233343536373839616263646566007D
:042D2400C5010008DD
:042D2800A1010008FD
:102D2C0001000000780C0000050000000024F400F5
:102D3C000100000000000000030000001002002051
:102D4C00000000001002002078020020E0020020A9
:102D5C000000000000000000000000000000000067
:102D6C000000000000000000000000000000000057
:102D7C000000000000000000000000000000000047
:102D8C0000000000000000000000000020000020F7
:0400000508001B6173
:00000001FF
