:020000040800F2
:100000000000022045180008611700086717000863
:100010006D1700087317000879170008000000002A
:100020000000000000000000000000007F17000832
:100030008D170008000000009B170008A917000892
:1000400095180008951800089518000895180008DC
:1000500095180008951800089518000895180008CC
:1000600095180008951800089518000895180008BC
:1000700095180008951800089518000895180008AC
:100080009518000895180008951800080000000051
:1000900000000000000000000000000095180008AB
:1000A000951800089518000895180008951800087C
:1000B000A505000815070008851400089518000814
:1000C000951800089518000895180008951800085C
:1000D00095180008D91500089518000800000000C0
:1000E00095180008951800089518000800000000F1
:1000F000000000000000000000000000951800084B
:1001000000000000951800089518000895180008D0
:1001100000000000000000000000000000000000DF
:1001200095180008951800089518000895180008FB
:10013000951800080000000000000000000000000A
:1001400000000000000000000000000095180008FA
:10015000951800089518000895180008DD08000893
:100160009518000895180008000000000000000025
:10017000000000000000000000000000000000007F
:1001800000000000951800080000000000000000BA
:080190009518000895180008FD
:1001A00010B5054C237833B9044B13B10448AFF3B1
:1001B00000800123237010BD6000002000000000BB
:1001C000F821000808B5034B1BB103490348AFF3FE
:1001D000008008BD0000000064000020F821000835
:1001E000034613F8012B002AFBD1181A0138704777
:1001F00001F0FF01102A2BDB10F0070F08D010F8D8
:10020000013B013A8B422DD010F0070F42B3F6D1DB
:10021000F0B441EA012141EA014122F007047FF0F4
:1002200000070023F0E80256083C85EA010586EA4B
:10023000010685FA47F5A3FA87F586FA47F6A5FA87
:1002400087F68EB9EED1F0BC01F0FF0102F0070293
:1002500032B110F8013B013A83EA010313B1F8D13E
:100260000020704701387047002D06BF354603381F
:10027000073815F0010F07D1013015F4807F02BF58
:10028000013015F4C03F0130F0BC0138704700BFA9
:1002900080B59CB000AF786039600023FB66414BAD
:1002A00001221A60404800F061FB00F05FFA0A206A
:1002B00000F0CDF900F06EFA3A4B02221A603B488A
:1002C00000F054FB0023FB6600F050FA05E0012229
:1002D0000121374800F08AFBF866FB6E002B03D142
:1002E000344B1B68002BF2D000F054FA2D4B032244
:1002F0001A60314800F03AFB0023FB6600F036FA42
:1003000005E0012201212A4800F070FBF866FB6E2F
:10031000002B03D1274B1B68002BF2D000F03AFAD8
:10032000204B04221A6007F108003B687A682349D1
:1003300001F0C6FA07F10803184600F017FB002386
:10034000FB6600F013FA05E001220121184800F0D5
:100350004DFBF866FB6E002B03D1164B1B68002B80
:10036000F2D000F017FA0F4B05221A60144800F083
:10037000FDFA0023FB6600F0F9F905E001220121F6
:100380000B4800F033FBF866FB6E002B03D1094BE2
:100390001B68002BF2D000F0FDF900BF7037BD469E
:1003A00080BD00BF80000020102200081C22000831
:1003B00024220008F80200202C2200083C22000819
:1003C0005422000880B5ADF51E7D02AF07F51C7301
:1003D000A3F51973186007F51C73A3F51A73196058
:1003E00007F51C73A3F51B731A600023C7F86C3262
:1003F000474800F0BBFA0023C7F86C3200F0B6F9AA
:1004000006E001220021434800F0F0FAC7F86C0230
:10041000D7F86C32002B03D13F4B1B68002BF0D078
:1004200000F0B8F907F51C73A3F51A7307F51C72F1
:10043000A2F5197207F5A07007F51C71A1F51B71E3
:10044000096800911B681268344901F039FA07F510
:10045000A0731846FFF7C4FE024607F114033049A3
:10046000184601F02DFA07F11403184600F07EFA41
:100470000023C7F86C3200F079F906E00122002170
:10048000284800F0B3FAC7F86C02D7F86C32002B9A
:1004900003D1214B1B68002BF0D000F07BF907F54E
:1004A000A073184600F062FA0023C7F86C3200F01F
:1004B0005DF906E0002200211B4800F097FAC7F81A
:1004C0006C02D7F86C32002B03D1134B1B68002B46
:1004D000F0D000F05FF90023C7F86C3200F046F965
:1004E00006E001220021114800F080FAC7F86C02F2
:1004F000D7F86C32002B03D1074B1B68002BF0D0D0
:1005000000F048F900BF07F51C77BD4680BD00BF6D
:100510006422000824220008F8020020902200082B
:10052000B4220008C4220008C8220008D42200080F
:1005300080B400AF194B1B6C184A43F001031364DD
:100540004FF080430F229A624FF080430122DA621B
:100550004FF08043DB684FF0804243F00103D360EB
:100560000F4B302283F81C230D4B4FF080521A6042
:100570004FF080431B694FF0804223F00103136169
:100580004FF080431B684FF0804223F0010313605B
:1005900000BFBD465DF8047B704700BF00380240D5
:1005A00000E100E080B400AF0B4B01221A604FF075
:1005B00080431B684FF0804223F0010313604FF02B
:1005C00080431B694FF0804223F00103136100BF99
:1005D000BD465DF8047B70478400002080B483B082
:1005E00000AF78604FF080427B68D3620B4B0022F3
:1005F0001A604FF080431B684FF0804243F00103C4
:10060000136000BF054B1B68002BFBD000BF00BF71
:100610000C37BD465DF8047B704700BF84000020A6
:1006200080B584B000AF78600023FB6006E04FF433
:100630007A70FFF7D3FFFB680133FB60FA687B68D1
:100640009A42F4DD00BF00BF1037BD4680BD80B5C3
:1006500084B000AF78600023FB6006E04FF47A704E
:10066000FFF7DEFFFB680133FB60FA687B689A42A4
:10067000F4DD00BF00BF1037BD4680BD80B400AFC1
:10068000BFF34F8F00BF064BDB6803F4E062044901
:10069000044B1343CB60BFF34F8F00BF00BFFDE798
:1006A00000ED00E00400FA0580B400AF164B1B6CAF
:1006B000154A43F002031364144B4FF223429A622B
:1006C000124B4FF48042DA62104BDB680F4A43F062
:1006D0000103D3600E4B102283F81D230C4B4FF007
:1006E00000521A60094B1B69084A23F00103136189
:1006F000064B1B68054A23F00103136000BFBD468B
:100700005DF8047B704700BF0038024000040040E1
:1007100000E100E080B500AF104B1B68002B09D052
:100720000E4B00221A600E4B1B690D4A23F0010389
:10073000136111E00B4B1B6801330A4A13600A4B2B
:1007400001221A60064B00221A61064B1B680A2B15
:1007500001D1FFF793FF00BF00BF80BD0400002060
:1007600000040040F4020020F802002080B400AF32
:10077000074B4FF48042DA62054B1B68044A43F092
:100780000103136000BFBD465DF8047B704700BFE6
:100790000004004080B400AF094B1B68084A23F0F6
:1007A00001031360064B1B69054A23F00103136123
:1007B000034B00225A6200BFBD465DF8047B7047C0
:1007C0000004004080B400AF404B1B6B3F4A43F035
:1007D000010313633E4B1B683D4A23F480031360FF
:1007E0003B4B1B683A4A43F400031360384B1B68C9
:1007F000374A23F080731360354B1B68344A43F04B
:1008000000731360324B4FF408225A622F4B5B6C1B
:100810002E4A43F0200353642C4B5B6A2B4A43F06F
:1008200020035362294B5B6A284A23F0200353625A
:10083000284BDB68274A23F00C03D360254BDB6889
:10084000244A43F40053D360224B9B68214A1B0C7B
:100850001B0493601F4B9B681E4A43F08B039360FD
:100860001C4BDB681B4A23F40043D360194B1B6904
:10087000184A23F440531361164BDB68154A23F4DE
:100880008063D360134B1B69124A23F40063136126
:10089000104BDB680F4A23F48053D3600D4B5B6928
:1008A0000C4A23F4407353610B4B202283F84723F7
:1008B000094B80229A60074BDB68064A43F02C0301
:1008C000D36000BFBD465DF8047B7047003802402E
:1008D000000002400014014000E100E080B400AFDD
:1008E0000F4B1B6803F02003002B13D00C4B5A68EE
:1008F0000C4B1B68D1B20C4AD1540A4B1B68013314
:10090000084A1360074B1B68B3F5967F02D1054B6D
:1009100000221A6000BFBD465DF8047B704700BF2F
:1009200000140140880000208C00002080B483B0B7
:1009300000AF0346FB7100BF0B4B1B6803F0800345
:10094000002BF9D0084AFB79536000BF064B1B68A7
:1009500003F04003002BF9D000BF00BF0C37BD46A9
:100960005DF8047B704700BF0014014080B584B07F
:1009700000AF78600023FB607868FFF731FC034626
:10098000BB6009E0FB687A6813441B781846FFF7E0
:10099000CDFFFB680133FB60FA68BB689A42F1DB6C
:1009A00000BF00BF1037BD4680BD000080B582B0DB
:1009B00000AF00237B6007E00A4A7B6813440022F3
:1009C0001A707B6801337B607B68B3F5967FF3DB3D
:1009D000054B00221A60C820FFF722FE00BF08372F
:1009E000BD4680BD8C0000208800002080B588B006
:1009F00000AFF860B9607A600023FB610023BB613F
:100A000000237B6102E0FB690133FB61BB69FA688B
:100A100013441A782A49FB690B441B789A42F2D195
:100A200039E0274AFB6913441A78264B1A70BB69D0
:100A3000FA6813441A78244B1A70C820FFF7F0FDA7
:100A4000BB68002B02D00120FFF701FEBB69013318
:100A5000BB61FB690133FB61194AFB6913441B78D5
:100A6000002B05D0BB69FA6813441B78002B02D118
:100A700001237B6109E0BB69FA6813441A781049C5
:100A8000FB690B441B789A42CBD07B69002B09D1C0
:100A9000FB690133FB610A4AFB6913441B78002B95
:100AA000E9D100E000BF7B69002B04D07B68002BFC
:100AB00001D0FFF77BFF7B6918462037BD4680BD1C
:100AC0008C000020E8020020E902002080B400AF82
:100AD000194B1B6C184A43F004031364174B40F284
:100AE0003F629A62154B0422DA62144BDB68134AA8
:100AF00043F00103D360124B502283F81E23104BA6
:100B00001B680F4A43F0804313600C4B1B690B4A70
:100B100023F001031361094B5B69084A43F00103A9
:100B20005361064B1B68054A43F00103136000BF85
:100B3000BD465DF8047B7047003802400008004065
:100B400000E100E080B500AFFFF7C0FF984B1B6BE2
:100B5000974A43F001031363954B1B6B944A43F090
:100B600002031363924B1B6B914A43F0040313631C
:100B7000904B1B688F4A23F0020313608D4B1B6858
:100B80008C4A43F0010313608A4B5B68894A23F067
:100B900001035360874B5B69864A43F0010353614D
:100BA000854B1B68844A23F400631360824B1B68E7
:100BB000814A43F4806313607F4B5B687E4A23F075
:100BC000200353607C4B5B697B4A43F020035361F5
:100BD000794B1B68784A23F400731360764B1B68CB
:100BE000754A43F480731360734B5B68724A23F059
:100BF00010035360704B5B696F4A43F010035361FD
:100C00006C4B1B686B4A23F008031360694B1B682D
:100C1000684A43F004031360664B5B68654A23F03F
:100C200002035360634B5B69624A43F00203536102
:100C3000614B1B68604A23F0800313605E4B1B68A6
:100C40005D4A43F0400313605B4B5B685A4A23F0F4
:100C500008035360584B5B69574A23F008035361FC
:100C6000544B1B68534A23F400331360514B1B68E9
:100C7000504A43F4803313604E4B5B684D4A23F473
:100C8000807353604B4B5B694A4A23F48073536112
:100C90004A4B1B68494A23F002031360474B1B6809
:100CA000464A43F001031360444B5B68434A23F018
:100CB00001035360414B5B69404A23F001035361D8
:100CC0003E4B1B683D4A23F0080313603B4B1B68F7
:100CD0003A4A43F004031360384B5B68374A23F009
:100CE00002035360354B5B69344A23F002035361BE
:100CF000314B1B68304A23F0020313602E4B1B68F4
:100D00002D4A43F0010313602B4B5B682A4A23F002
:100D100001035360284B5B69274A23F001035361A9
:100D2000254B1B68244A23F400131360224B1B68D5
:100D3000214A43F4801313601F4B5B681E4A23F45F
:100D4000806353601C4B5B691B4A23F480635361CF
:100D5000184B1B68174A23F400731360154B1B686C
:100D6000144A43F480731360124B5B68114A23F0FA
:100D7000100353600F4B5B690E4A23F0100353615D
:100D80000E4B1B680D4A23F4002313600B4B1B68AA
:100D90000A4A43F480231360084B5B68074A23F038
:100DA00002035360054B5B69044A23F4007307E0B8
:100DB00000380240000002400004024000080240E7
:100DC0005361194B1B68184A23F400331360164B08
:100DD0001B68154A43F480331360134B5B68124A57
:100DE00023F002035360104B5B690F4A23F48073B6
:100DF00053610D4B1B680C4A23F4002313600A4B0C
:100E00001B68094A43F480231360074B5B68064A5A
:100E100023F002035360044B5B69034A23F400731D
:100E2000536100BF80BD00BF0004024080B489B0A0
:100E300000AF78607B6842F20F72934203DD42F2AA
:100E40000F737B6004E07B68002B01DA00237B607A
:100E50007B68A04A82FB03129211DB17D21A9E4BC9
:100E600083FB02139910D317C91A0B469B000B443E
:100E70005B00D31A7B617B68984A82FB0312521194
:100E8000DB17D21A944B83FB02139910D317C91A9C
:100E90000B469B000B445B00D31A3B617B688E4A78
:100EA00082FB03129210DB17D21A8B4B83FB0213C7
:100EB0009910D317C91A0B469B000B445B00D31A39
:100EC000FB607A68844B83FB02139910D317C91A0D
:100ED0000B469B000B445B00D31ABB600023FB61F5
:100EE0007F4B1B68032B00F2838001A252F823F092
:100EF000010F00083D0F0008790F0008B50F00082A
:100F00007B69FB61774B5B69764A23F00103536190
:100F1000754B5B69744A43F020035361724B5B6904
:100F2000714A43F0100353616E4B5B696D4A43F0A5
:100F3000020353616A4B03221A6059E03B69FB616B
:100F4000684B5B69674A43F001035361664B5B6919
:100F5000654A23F020035361634B5B69624A43F0A7
:100F6000100353615F4B5B695E4A43F002035361B8
:100F70005B4B00221A603BE0FB68FB61594B5B69ED
:100F8000584A43F001035361574B5B69564A43F09B
:100F900020035361544B5B69534A23F010035361A0
:100FA000504B5B694F4A43F0020353614C4B0122A3
:100FB0001A601DE0BB68FB614A4B5B69494A43F01C
:100FC00001035361484B5B69474A43F02003536177
:100FD000454B5B69444A43F010035361414B5B69E5
:100FE000404A23F0020353613D4B02221A6000BFC6
:100FF000FB69092B00F2DB8101A252F823F000BF4C
:10100000291000087F100008F1100008471100089F
:101010009D110008F3110008491200089F120008F2
:10102000F5120008591300082F4B5B692E4A43F054
:10103000080353612B4B5B692A4A43F48073536165
:101040002A4B5B69294A43F001035361274B5B69D3
:10105000264A43F002035361234B5B69224A43F063
:1010600001035361204B5B691F4A43F48063536162
:101070001C4B5B691B4A23F01003536197E11A4B29
:101080005B69194A23F008035361164B5B69154AE3
:1010900043F480735361154B5B69144A43F00103B9
:1010A0005361124B5B69114A23F0020353610E4BEB
:1010B0005B690D4A23F0010353610B4B5B690A4ADC
:1010C00023F480635361074B5B69064A23F01003E6
:1010D00053616CE1D34D6210676666661F85EB5104
:1010E0007C00002000000240000402400008024092
:1010F000964B5B69954A43F008035361944B5B69D7
:10110000934A43F480735361924B5B69914A23F095
:10111000010353618F4B5B698E4A43F002035361B5
:101120008A4B5B69894A43F001035361874B5B69D2
:10113000864A23F480635361854B5B69844A43F09C
:101140001003536133E1814B5B69804A43F008032C
:1011500053617F4B5B697E4A43F4807353617D4BDF
:101160005B697C4A43F0010353617A4B5B69794ABE
:1011700043F002035361754B5B69744A23F001032A
:101180005361724B5B69714A23F480635361704B06
:101190005B696F4A43F01003536108E16B4B5B6975
:1011A0006A4A23F008035361694B5B69684A43F458
:1011B00080735361674B5B69664A43F00103536177
:1011C000644B5B69634A23F0020353615F4B5B69C5
:1011D0005E4A23F0010353615C4B5B695B4A43F455
:1011E000806353615A4B5B69594A43F01003536162
:1011F000DDE0564B5B69554A43F008035361544B9D
:101200005B69534A23F480735361524B5B69514AC3
:1012100043F0010353614F4B5B694E4A43F00203B5
:1012200053614A4B5B69494A23F001035361474BC1
:101230005B69464A43F480635361454B5B69444AAA
:1012400043F010035361B2E0404B5B693F4A43F007
:10125000080353613E4B5B693D4A23F4807353613D
:101260003C4B5B693B4A43F001035361394B5B697B
:10127000384A43F002035361344B5B69334A43F00D
:1012800001035361314B5B69304A43F4806353611E
:101290002F4B5B692E4A43F01003536187E02B4BC1
:1012A0005B692A4A43F008035361294B5B69284A6A
:1012B00043F480735361274B5B69264A43F0010373
:1012C0005361244B5B69234A23F0020353611F4B94
:1012D0005B691E4A23F0010353611C4B5B691B4A87
:1012E00023F4806353611A4B5B69194A23F010039E
:1012F00053615CE0154B5B69144A43F0080353618A
:10130000134B5B69124A43F480735361114B5B6961
:10131000104A43F0010353610E4B5B690D4A43F0E1
:1013200002035361094B5B69084A43F001035361AF
:10133000064B5B69054A43F480635361044B5B6968
:10134000034A43F01003536131E000BF0004024040
:1013500000000240000802401D4B5B691C4A43F03C
:10136000080353611B4B5B691A4A43F48073536152
:10137000194B5B69184A43F001035361164B5B69D3
:10138000154A43F002035361114B5B69104A23F085
:10139000010353610E4B5B690D4A43F48063536153
:1013A0000C4B5B690B4A43F01003536100BF0023F1
:1013B000BB6102E0BB690133BB61BB69B3F57A7FF6
:1013C000F8DB00BF00BF2437BD465DF8047B7047E3
:1013D00000040240000002400008024080B483B0D4
:1013E00000AF78607B68022B2FD07B68022B3FDC3C
:1013F0007B68002B03D07B68012B13D038E01F4B98
:101400005B691E4A23F4007353611D4B5B691C4AE0
:1014100023F4807353611A4B5B69194A43F40073D8
:10142000536125E0154B5B69144A23F40073536143
:10143000134B5B69124A43F480735361104B5B6931
:101440000F4A23F40073536112E00C4B5B690B4AA3
:1014500043F4007353610A4B5B69094A23F48073B8
:101460005361074B5B69064A23F40073536100BF65
:1014700000BF0C37BD465DF8047B70470008024092
:101480000004024080B500AF064B1B681846FFF70A
:10149000CDFC054B1B69044A23F00503136100BF13
:1014A00080BD00BF000000200008004080B400AFF5
:1014B000454B1B6B444A43F001031363434B1B68CA
:1014C000424A23F480231360404B1B683F4A43F495
:1014D000002313603D4B1B683C4A23F480131360C8
:1014E0003A4B1B68394A43F400131360374B5B6A6D
:1014F000364A23F47F635362344B5B6A334A43F4C6
:10150000EE635362304B5B6C2F4A43F0100353641D
:101510002D4B5B6A2C4A43F0100353622A4B5B6AE3
:10152000294A23F010035362294BDB68284A23F031
:101530000C03D360264BDB68254A43F40053D36089
:10154000234B9B68224A1B0C1B049360204B9B6817
:101550001F4A43F4D06343F0030393601C4BDB68E2
:101560001B4A23F40043D360194B1B69184A23F428
:1015700040531361164BDB68154A23F48063D36034
:10158000134B1B69124A23F400631361104BDB6891
:101590000F4A23F48053D3600D4B5B690C4A23F44C
:1015A000407353610B4B202283F82523094B2022E3
:1015B0005A60074BDB68064A43F02C03D36000BF38
:1015C000BD465DF8047B70470038024000000240D1
:1015D0000010014000E100E080B400AF0F4B1B6839
:1015E00003F02003002B13D00C4B5A680C4B1B68E4
:1015F000D1B20C4AD1540A4B1B680133084A13601C
:10160000074B1B68B3F5967F02DB054B00221A607F
:1016100000BFBD465DF8047B704700BF001001406D
:10162000B8010020BC01002080B500AF294B00228A
:101630001A60294B00221A602EE0264B1B68274AAD
:10164000D35C422B1BD1234B1B68C72B17DC214BD0
:101650001B680133214AD35C4D2B10D11E4B012254
:101660001A601C4B1B6808331C4AD35C1B02194AC6
:101670001268093219498A5C1344194A1360154BE0
:101680001B680133134A1360124B1B68B3F5967F36
:1016900002DB104B00221A600F4B1B68002BCCD0D2
:1016A0000F4B1B680F4A13600D4B1B68192B03DC93
:1016B0000220FFF793FE0AE0094B1B68232B03DC93
:1016C0000120FFF78BFE02E00020FFF787FE00BF3E
:1016D00080BD00BFEC020020F0020020BC01002011
:1016E000080000200000002080B582B000AFFFF7A6
:1016F00029FAFEF71DFFFEF7D7FFFFF763F8FFF7A4
:10170000D5FE11491148FEF7C3FD114B00221A60A6
:10171000104B02221A60104B1B681A4601210F4819
:10172000FEF750FE0B4B03221A6000237B6007E09C
:10173000FFF77AFF0120FEF78AFF7B6801337B60A9
:101740007B68132BF4DDE0E7DC220008EC220008C4
:10175000F80200208000002000000020F022000895
:1017600080B400AFFEE780B400AFFEE780B400AF06
:10177000FEE780B400AFFEE780B400AFFEE780B4C0
:1017800000AF00BFBD465DF8047B704780B400AF7A
:1017900000BFBD465DF8047B704780B400AF00BF5A
:1017A000BD465DF8047B704780B500AF00F074F86B
:1017B00000BF80BD80B586B000AF7860144A154B7D
:1017C000D31A7B617B693B61134B1B68002B02D1F1
:1017D000114B124A1A60104B1A687B6813443A691D
:1017E0009A4207D200F08CF803460C221A604FF0A0
:1017F000FF3309E0084B1B68FB60074B1A687B68E6
:101800001344054A1360FB6818461837BD4680BD6F
:101810000000022000040000FC0200205004002010
:1018200080B400AF064BD3F88830054A43F4700308
:10183000C2F8883000BFBD465DF8047B704700BF2A
:1018400000ED00E0DFF834D00D480E490E4A0023C9
:1018500002E0D458C4500433C4188C42F9D30B4A64
:101860000B4C002301E013600432A242FBD3FFF7CC
:10187000D7FF00F04BF8FFF737FF7047000002205A
:1018800000000020600000203C23000860000020D1
:101890004C040020FEE7000080B400AF064B1B782C
:1018A0001A46064B1B681344044A136000BFBD462A
:1018B0005DF8047B704700BF0C000020000300208F
:1018C0000EB400B59CB01DAB029006906FF00041C5
:1018D000094807910491094953F8042B05910068C0
:1018E000019302A900F08AF9029B00221A701CB031
:1018F0005DF804EB03B070475C0000200802FFFFB6
:10190000014B1868704700BF5C00002070B50D4D9A
:101910000D4C641BA4100026A64209D10B4D0C4CA3
:1019200000F06AFC641BA4100026A64205D170BD1D
:1019300055F8043B98470136EEE755F8043B9847C5
:101940000136F2E73423000834230008342300086A
:10195000382300087047704737B5002944D051F844
:10196000043C0190002BA1F10404B8BFE41800F07E
:10197000DFF81E4A0198136833B96360146003B03E
:10198000BDE8304000F0DAB8A34208D925686119F3
:101990008B4201BF19685B6849192160EDE71A465F
:1019A0005B680BB1A342FAD911685518A5420BD157
:1019B000246821445418A3421160E0D11C685B687C
:1019C00053600C441460DAE702D90C230360D6E7B5
:1019D000256861198B4204BF19685B68636004BFA6
:1019E000491921605460CAE703B030BD44040020A7
:1019F00070B50E4E0C463168054611B900F0A6FBD5
:101A000030602146284600F0A1FB431C0AD0C41CCC
:101A100024F00304A04207D0211A284600F096FBC8
:101A2000013001D14FF0FF34204670BD4804002042
:101A30002DE9F843CD1C25F0030508350C2D38BFE2
:101A40000C25002D074601DBA94205D90C233B607C
:101A500000263046BDE8F883DFF8D08000F068F853
:101A6000D8F800301C465CBB29463846FFF7C0FF5B
:101A7000431C044655D1D8F800402646002E45D1D7
:101A8000002C48D023683146384604EB030900F0A7
:101A90005DFB81453FD121686D1A29463846FFF725
:101AA000A7FF013037D023682B442360D8F80030DB
:101AB000002B38D05A68A2422BD100225A600FE086
:101AC0002268521B1FD40B2A17D96119A342256023
:101AD00018BF5960636808BFC8F8001062514B60B6
:101AE000384604F10B0600F029F826F00706231DFE
:101AF000F21AAED09B1BA350ABE7A3426268DDD1C4
:101B0000C8F80020ECE723466468ACE73446766802
:101B1000B4E71346CCE70C233B60384600F00EF8E0
:101B200097E72560DCE75B60FFDE00BF4404002030
:101B30000148FFF70FBF00BF400400200148FFF736
:101B40000ABF00BF400400202DE9F0478E681F4601
:101B5000BE420B6882460C4690462CD88A8912F405
:101B6000906F26D06569096905EB4505A3EB01096E
:101B700005EBD5757B1C4B446D109D4238BF1D464F
:101B8000530527D52946FFF753FF064660B3216961
:101B90004A4600F0EBFAA38923F4906343F08003F4
:101BA000A381266165614E44A5EB09052660A56009
:101BB0003E46BE4200D93E4620683246414600F0CD
:101BC000ABFAA3689B1BA360236833442360002007
:101BD000BDE8F0872A4600F0D7FA06460028E0D193
:101BE00021695046FFF7B8FE0C23CAF80030A389DC
:101BF00043F04003A3814FF0FF30E9E72DE9F04FB8
:101C000098468B891B069DB007460D4614460ED597
:101C10000B6963B94021FFF70BFF2860286120B9E9
:101C20000C233B604FF0FF30D0E040236B6100237A
:101C3000099320238DF82930CDF80C803023DFF86C
:101C4000A4818DF82A304FF0010923469A4613F8F3
:101C5000012B0AB1252AF9D1BAEB040B0BD05B4654
:101C6000224629463846FFF76FFF013000F0A98071
:101C7000099A5A4409929AF80030002B00F0A1808A
:101C800000234FF0FF32CDE905230AF1010A049346
:101C900007938DF853301A935446052214F8011B0C
:101CA0005048FEF7A5FA049AD8B9D00644BF2023BD
:101CB0008DF85330110744BF2B238DF853309AF819
:101CC00000302A2B15D0079A544600204FF00A0CFA
:101CD000214611F8013B303B092B4DD9B0B1079299
:101CE00014E0A0EB080309FA03F313430493A2469C
:101CF000D2E7039B191D1B680391002BBBBF5B42FE
:101D000042F0020207930793B8BF049223782E2B68
:101D10000CD163782A2B34D1039B1A1D1B680392C4
:101D2000002BB8BF4FF0FF3302340593DFF8C4A097
:101D3000217803225046FEF75BFA38B1049BA0EBF2
:101D40000A004022824013430134049314F8011B1B
:101D500025488DF828100622FEF74AFA002838D0C8
:101D6000224B1BBB039B073323F00703083303936A
:101D7000099B3344099368E70CFB02320C460120AF
:101D8000A6E700230134059319464FF00A0C2046BC
:101D900010F8012B303A092A03D9002BC6D005913F
:101DA000C4E70CFB012104460123F0E703AB0093D9
:101DB0002A460F4B04A93846AFF30080421C064662
:101DC000D6D1AB895B063FF52DAF09981DB0BDE8B4
:101DD000F08F03AB00932A46054B04A9384600F068
:101DE00079F8EBE7012300080B230008000000004E
:101DF000491B0008072300082DE9F04716469946BD
:101E00008A680B69DDF820809342B8BF13463360BF
:101E100091F8432007460C460AB10133336023682A
:101E2000990642BF336802333360256815F0060512
:101E300006D104F1190AE36832689B1AAB4226DC2A
:101E400094F84320131E226818BF012392062BD456
:101E500004F1430249463846C04701301ED023688A
:101E6000226903F00603042B02BFE5683368ED1A0C
:101E7000A3680CBF25EAE57500259342C4BF9B1AF1
:101E8000ED1800261A34B5421AD1002008E00123CB
:101E9000524649463846C047013003D14FF0FF3023
:101EA000BDE8F0870135C6E7E1185A1C302081F8FB
:101EB0004300224494F8451082F843100233C7E7E8
:101EC0000123224649463846C0470130E6D0013654
:101ED000D9E700002DE9FF470F7E0C9D782F914632
:101EE00080460C469A4601F1430207D8622F0AD871
:101EF000002F00F0D480582F00F0C08004F142057C
:101F000084F842703AE0A7F16303152BF6D801A1DB
:101F100051F823F06D1F0008811F0008FD1E000806
:101F2000FD1E0008FD1E0008FD1E0008811F0008A0
:101F3000FD1E0008FD1E0008FD1E0008FD1E000815
:101F400085200008AD1F00083F200008FD1E000886
:101F5000FD1E0008A7200008FD1E0008AD1F000898
:101F6000FD1E0008FD1E0008472000082B681A1DF2
:101F70001B682A6004F1420584F8423001239FE087
:101F800020682B68070603F10401296001D51E684B
:101F900003E04606FBD5B3F90060002E03DA2D23DB
:101FA000764284F843305A480A2312E02B682068AE
:101FB000191D2960050601D51E6802E04106FBD502
:101FC0001E8853486F2F0CBF08230A23002184F872
:101FD00043106568A560002DA2BF216821F00401AF
:101FE00021600EB9002D4BD01546B6FBF3F103FB73
:101FF0001167C75D05F8017D3746BB420E46F4D92F
:10200000082B0BD12368DE0708D523696168994244
:10201000DEBF302305F8013C05F1FF35521B22617C
:10202000CDF800A04B4603AA21464046FFF7E4FE48
:1020300001304AD14FF0FF3004B0BDE8F08723688B
:1020400043F0200323603348782784F845702368E1
:1020500029681F0651F8046B02D45F0648BFB6B268
:10206000DF0748BF43F02003296048BF23601EB943
:10207000236823F0200323601023A7E72448E4E724
:102080001546BDE72B6826686169181D286035066E
:102090001B6801D5196002E07006FBD5198000238A
:1020A00023611546BCE72B681A1D2A601D6862680B
:1020B00000212846FEF79CF808B1401B6060636869
:1020C0002361002384F84330AAE723692A4649465E
:1020D0004046D0470130ADD023689B0713D4E06859
:1020E000039B9842B8BF1846A6E7012332464946EB
:1020F0004046D04701309DD00135E36803995B1A13
:10210000AB42F2DCEBE7002504F11906F5E700BF6E
:102110001223000823230008884210B501EB0204B3
:1021200002D98442234607D8431EA14208D011F8A1
:10213000012B03F8012FF8E7024401468A4200D13F
:1021400010BD13F8014D02F8014DF7E738B5064D03
:102150000023044608462B60FFF72CFB431C02D1EA
:102160002B6803B1236038BD3C0400200A4491422F
:1021700000F1FF3300D1704710B511F8014B03F89F
:10218000014F9142F9D110BD2DE9F041804614462E
:102190000E4621B9BDE8F0411146FFF749BC2AB906
:1021A000FFF7DAFB25462846BDE8F08100F01BF872
:1021B0008442074602D8B4EB500F12D8214640465D
:1021C000FFF736FC05460028EDD0BC4222463146DA
:1021D00028BF3A46FFF7CAFF31464046FFF7BCFB2F
:1021E000E1E73546DFE751F8043C181F002BBCBF80
:1021F0000B58C01870470000F8B500BFF8BC08BC09
:102200009E467047F8B500BFF8BC08BC9E467047B4
:1022100041542B5253540D0A0000000041540D0A42
:10222000000000004F4B0D0A0000000041542B43FA
:10223000574D4F44453D310D0A00000041542B439A
:10224000574A41503D222573222C222573220D0A24
:102250000000000041542B4349504D55583D300D6E
:102260000A00000041542B43495053544152543DFD
:1022700022544350222C223138342E3130362E3124
:1022800035332E313439222C38300D0A000000004D
:10229000474554202F7570646174653F6170695FB4
:1022A0006B65793D2573266669656C6425643D25FB
:1022B000750D0A0041542B43495053454E443D256A
:1022C000640D0A003E00000053454E44204F4B0D64
:1022D0000A000000434C4F53454400006D616D619E
:1022E0006D6F70617373776F726400006F776F004A
:1022F0005056364F5550445159423541365153345A
:1023000000232D302B2000686C4C00656667454625
:10231000470030313233343536373839414243445F
:1023200045460030313233343536373839616263EF
:04233000646566007A
:04233400C5010008D7
:04233800A1010008F7
:10233C00780C000001000000FFFFFFFF010000000F
:10234C0000000000040300206C030020D4030020D4
:10235C000000000000000000000000000000000071
:10236C000000000000000000000000000000000061
:10237C000000000000000000000000000000000051
:10238C000000000000000000000000001000002011
:040000050800184592
:00000001FF
