:020000040800F2
:1000000000000220652500088124000887240008DC
:100010008D240008932400089924000800000000A3
:100020000000000000000000000000009F24000805
:10003000AD24000800000000BB240008C92400080B
:10004000B5250008B5250008B5250008B525000828
:10005000B5250008B5250008B5250008B525000818
:10006000B5250008B5250008B5250008B525000808
:10007000B5250008B5250008B5250008B5250008F8
:10008000B5250008B5250008B525000800000000CA
:10009000000000000000000000000000B52500087E
:1000A000B5250008B5250008B5250008B5250008C8
:1000B00055140008C515000859240008B525000886
:1000C000B5250008B5250008B5250008B5250008A8
:1000D000B5250008B5250008B5250008000000007A
:1000E000B5250008B5250008B5250008000000006A
:1000F000000000000000000000000000B52500081E
:1001000000000000B5250008B5250008B525000849
:1001100000000000000000000000000000000000DF
:10012000B5250008B5250008B5250008B525000847
:10013000B5250008000000000000000000000000DD
:10014000000000000000000000000000B5250008CD
:10015000B5250008B5250008B52500088D1700084D
:10016000B5250008B52500080000000000000000CB
:10017000000000000000000000000000000000007F
:1001800000000000B525000800000000000000008D
:08019000B5250008B5250008A3
:1001A00010B5054C237833B9044B13B10448AFF3B1
:1001B00000800123237010BD7000002000000000AB
:1001C000883D000808B5034B1BB103490348AFF352
:1001D000008008BD0000000074000020883D000879
:1001E000034613F8012B002AFBD1181A0138704777
:1001F00001F0FF01102A2BDB10F0070F08D010F8D8
:10020000013B013A8B422DD010F0070F42B3F6D1DB
:10021000F0B441EA012141EA014122F007047FF0F4
:1002200000070023F0E80256083C85EA010586EA4B
:10023000010685FA47F5A3FA87F586FA47F6A5FA87
:1002400087F68EB9EED1F0BC01F0FF0102F0070293
:1002500032B110F8013B013A83EA010313B1F8D13E
:100260000020704701387047002D06BF354603381F
:10027000073815F0010F07D1013015F4807F02BF58
:10028000013015F4C03F0130F0BC0138704700BFA9
:1002900081F0004102E000BF83F0004330B54FEA37
:1002A00041044FEA430594EA050F08BF90EA020FA4
:1002B0001FBF54EA000C55EA020C7FEA645C7FEA37
:1002C000655C00F0E2804FEA5454D4EB5555B8BF5A
:1002D0006D420CDD2C4480EA020281EA030382EACB
:1002E000000083EA010180EA020281EA0303362D5D
:1002F00088BF30BD11F0004F4FEA01314FF4801C30
:100300004CEA113102D0404261EB410113F0004F41
:100310004FEA03334CEA133302D0524263EB4303F8
:1003200094EA050F00F0A780A4F10104D5F1200E96
:100330000DDB02FA0EFC22FA05F2801841F10001F1
:1003400003FA0EF2801843FA05F359410EE0A5F1C5
:1003500020050EF1200E012A03FA0EFC28BF4CF0F6
:10036000020C43FA05F3C01851EBE37101F00045AC
:1003700007D54FF0000EDCF1000C7EEB00006EEBB9
:100380000101B1F5801F1BD3B1F5001F0CD3490843
:100390005FEA30004FEA3C0C04F101044FEA44529A
:1003A00012F5800F80F09A80BCF1004F08BF5FEA21
:1003B000500C50F1000041EB045141EA050130BD01
:1003C0005FEA4C0C404141EB0101013C28BFB1F513
:1003D000801FE9D291F0000F04BF01460020B1FA5E
:1003E00081F308BF2033A3F10B03B3F120020CDA31
:1003F0000C3208DD02F1140CC2F10C0201FA0CF00F
:1004000021FA02F10CE002F11402D8BFC2F1200C73
:1004100001FA02F120FA0CFCDCBF41EA0C01904029
:10042000E41AA2BF01EB0451294330BD6FEA040472
:100430001F3C1CDA0C340EDC04F11404C4F120025D
:1004400020FA04F001FA02F340EA030021FA04F36F
:1004500045EA030130BDC4F10C04C4F1200220FAC6
:1004600002F001FA04F340EA0300294630BD21FA04
:1004700004F0294630BD94F0000F83F4801306BFCA
:1004800081F480110134013D4EE77FEA645C18BFBE
:100490007FEA655C29D094EA050F08BF90EA020F55
:1004A00005D054EA000C04BF1946104630BD91EA4D
:1004B000030F1EBF0021002030BD5FEA545C05D150
:1004C0004000494128BF41F0004130BD14F580048F
:1004D0003CBF01F5801130BD01F0004545F0FE4103
:1004E00041F470014FF0000030BD7FEA645C1ABF38
:1004F000194610467FEA655C1CBF0B46024650EA6F
:10050000013406BF52EA033591EA030F41F400219A
:1005100030BD00BF90F0000F04BF0021704730B520
:100520004FF4806404F132044FF000054FF00001F5
:1005300050E700BF90F0000F04BF0021704730B5B6
:100540004FF4806404F1320410F0004548BF40428B
:100550004FF000013EE700BF42004FEAE2014FEAE0
:1005600031014FEA02701FBF12F07F4393F07F4FBB
:1005700081F06051704732F07F4208BF704793F0BE
:100580007F4F04BF41F40021704730B54FF46074D1
:1005900001F0004521F000411CE700BF50EA0102D4
:1005A00008BF704730B54FF000050AE050EA01027D
:1005B00008BF704730B511F0004502D5404261EBED
:1005C00041014FF4806404F132045FEA915C3FF42E
:1005D000D8AE4FF003025FEADC0C18BF03325FEACB
:1005E000DC0C18BF033202EBDC02C2F1200300FA7C
:1005F00003FC20FA02F001FA03FE40EA0E0021FAA1
:1006000002F11444BDE600BF70B54FF0FF0C4CF48E
:10061000E06C1CEA11541DBF1CEA135594EA0C0F40
:1006200095EA0C0F00F0DEF82C4481EA030621EA7B
:100630004C5123EA4C5350EA013518BF52EA0335B6
:1006400041F4801143F4801338D0A0FB02CE4FF068
:100650000005E1FB02E506F00042E0FB03E54FF098
:100660000006E1FB03569CF0000F18BF4EF0010E90
:10067000A4F1FF04B6F5007F64F5407404D25FEA8C
:100680004E0E6D4146EB060642EAC62141EA55513F
:100690004FEAC52040EA5E504FEACE2EB4F1FD0C81
:1006A00088BFBCF5E06F1ED8BEF1004F08BF5FEAFF
:1006B000500E50F1000041EB045170BD06F00046B1
:1006C00046EA010140EA020081EA0301B4EB5C045E
:1006D000C2BFD4EB0C0541EA045170BD41F4801156
:1006E0004FF0000E013C00F3AB8014F1360FDEBF7B
:1006F000002001F0004170BDC4F10004203C35DA57
:100700000C341BDC04F11404C4F1200500FA05F3D9
:1007100020FA04F001FA05F240EA020001F000427A
:1007200021F0004110EBD37021FA04F642EB0601F0
:100730005EEA430E08BF20EAD37070BDC4F10C041A
:10074000C4F1200500FA04F320FA05F001FA04F2DE
:1007500040EA020001F0004110EBD37041F10001CA
:100760005EEA430E08BF20EAD37070BDC4F12005D5
:1007700000FA05F24EEA020E20FA04F301FA05F23D
:1007800043EA020321FA04F001F0004121FA04F2E5
:1007900020EA020000EBD3705EEA430E08BF20EAB5
:1007A000D37070BD94F0000F0FD101F000464000EF
:1007B00041EB010111F4801F08BF013CF7D041EA71
:1007C000060195F0000F18BF704703F00046520075
:1007D00043EB030313F4801F08BF013DF7D043EA46
:1007E0000603704794EA0C0F0CEA135518BF95EAFC
:1007F0000C0F0CD050EA410618BF52EA4306D1D183
:1008000081EA030101F000414FF0000070BD50EAA1
:10081000410606BF1046194652EA430619D094EA2B
:100820000C0F02D150EA013613D195EA0C0F05D115
:1008300052EA03361CBF104619460AD181EA030169
:1008400001F0004141F0FE4141F470014FF0000021
:1008500070BD41F0FE4141F4780170BD70B54FF0BC
:10086000FF0C4CF4E06C1CEA11541DBF1CEA13553C
:1008700094EA0C0F95EA0C0F00F0A7F8A4EB05041E
:1008800081EA030E52EA03354FEA013100F0888015
:100890004FEA03334FF0805545EA131343EA1263DE
:1008A0004FEA022245EA111545EA10654FEA002693
:1008B0000EF000419D4208BF964244F1FD0404F54C
:1008C000407402D25B084FEA3202B61A65EB0305A8
:1008D0005B084FEA32024FF480104FF4002CB6EB65
:1008E000020E75EB030E22BFB61A754640EA0C00E5
:1008F0005B084FEA3202B6EB020E75EB030E22BF25
:10090000B61A754640EA5C005B084FEA3202B6EB65
:10091000020E75EB030E22BFB61A754640EA9C0024
:100920005B084FEA3202B6EB020E75EB030E22BFF4
:10093000B61A754640EADC0055EA060E18D04FEAB2
:10094000051545EA16754FEA06164FEAC30343EA52
:1009500052734FEAC2025FEA1C1CC0D111F4801F1F
:100960000BD141EA00014FF000004FF0004CB6E718
:1009700011F4801F04BF01430020B4F1FD0C88BFB7
:10098000BCF5E06F3FF6AFAEB5EB030C04BFB6EBC2
:10099000020C5FEA500C50F1000041EB045170BDB5
:1009A0000EF0004E4EEA113114EB5C04C2BFD4EBE2
:1009B0000C0541EA045170BD41F480114FF0000E66
:1009C000013C90E645EA060E8DE60CEA135594EAE2
:1009D0000C0F08BF95EA0C0F3FF43BAF94EA0C0FE5
:1009E0000AD150EA01347FF434AF95EA0C0F7FF45A
:1009F00025AF104619462CE795EA0C0F06D152EAAE
:100A000003353FF4FDAE1046194622E750EA410691
:100A100018BF52EA43067FF4C5AE50EA41047FF4A2
:100A20000DAF52EA43057FF4EBAE12E74FF0FF3C07
:100A300006E000BF4FF0010C02E000BF4FF0010CD8
:100A40004DF804CD4FEA410C7FEA6C5C4FEA430C51
:100A500018BF7FEA6C5C1BD001B050EA410C0CBFA0
:100A600052EA430C91EA030F02BF90EA020F002002
:100A7000704710F1000F91EA030F58BF994208BF69
:100A800090422CBFD8176FEAE37040F00100704726
:100A90004FEA410C7FEA6C5C02D150EA013C07D17D
:100AA0004FEA430C7FEA6C5CD6D152EA033CD3D0C8
:100AB0005DF8040B704700BF8446104662468C46C2
:100AC0001946634600E000BF01B5FFF7B7FF0028F5
:100AD00048BF10F1000F01BD4DF808EDFFF7F4FF1E
:100AE0000CBF012000205DF808FB00BF4DF808EDA9
:100AF000FFF7EAFF34BF012000205DF808FB00BFCC
:100B00004DF808EDFFF7E0FF94BF012000205DF8ED
:100B100008FB00BF4DF808EDFFF7CEFF94BF0120A2
:100B200000205DF808FB00BF4DF808EDFFF7C4FF9B
:100B300034BF012000205DF808FB00BF4FEA410CE4
:100B40007FEA6C5C02D150EA013C0AD14FEA430CC7
:100B50007FEA6C5C02D152EA033C02D14FF0000004
:100B600070474FF0010070474FEA4102B2F1E04395
:100B700024BFB3F5001CDCF1FE5C0DD901F0004C84
:100B80004FEAC0024CEA5070B2F1004F40EB8300D4
:100B900008BF20F00100704711F0804F21D113F100
:100BA0003872BCBF01F00040704741F480114FEA39
:100BB0005252C2F11802C2F1200C10FA0CF320FAC2
:100BC00002F018BF40F001004FEAC1234FEAD323DF
:100BD00003FA0CFC40EA0C0023FA02F34FEA430349
:100BE000CCE77FEA625307D150EA01331EBF4FF0D2
:100BF000FE4040F44000704701F0004040F0FE40ED
:100C000040F40000704700BF80B500AF164B1B6872
:100C1000154A43F480531360134B1B68124A23F4A4
:100C200000531360104B5B690F4A23F0400353617C
:100C300044F2506000F02AFC0B4B5B690A4A43F017
:100C400040035361282000F021FC074B1B68064A33
:100C500023F480531360044B1B68034A23F40053AE
:100C6000136000BF80BD00BF0004024080B500AF2C
:100C700000BF062000F098FB0346002BF9D150205E
:100C800000F004FC00BF062000F08EFB0346002BA2
:100C9000F9D0502000F0FAFB00BF80BD80B582B0D3
:100CA00000AF00237B6000233B602DE000BF0620E7
:100CB00000F07AFB0346002BF9D0282000F0E6FB79
:100CC000062000F071FB0346002B0AD13B68C3F1FC
:100CD0000703012202FA03F3DB437A6813407B60C7
:100CE00008E03B68C3F10703012202FA03F37A68C4
:100CF00013437B6000BF062000F056FB0346002B29
:100D0000F9D13B6801333B603B68072BCEDD7B6844
:100D100018460837BD4680BD80B500AFFFF7BEFF5F
:100D200007EE900AF8EEE77A144BC3ED007AFFF76E
:100D3000B5FF07EE900AF8EEE77A114BC3ED007AA3
:100D4000FFF7ACFF07EE900AF8EEE77A0D4BC3ED24
:100D5000007AFFF7A3FF07EE900AF8EEE77A0A4B56
:100D6000C3ED007AFFF79AFF07EE900AF8EEE77AF4
:100D7000064BC3ED007A00BF80BD00BFA400002079
:100D8000A8000020AC000020B0000020B40000202B
:100D90002DE9B0438AB000AFB54B7B62B54B3B62E7
:100DA000B54BFB61B54BBB61B54B7B61B54B3B6153
:100DB000B54BFB60B54BBB60B54B7B60B54BD3ED22
:100DC000007AF2EE046A87EEA67AB34BD3ED007A8E
:100DD00077EE277AB14BC3ED007AB04BD3ED007AB2
:100DE000B2EE027A27EE877AF1EE046AC7EE267A2F
:100DF0009FEDAB7A77EE877AA84BC3ED007AA94BCB
:100E0000D3ED007AF2EE046A87EEA67AA64BD3ED14
:100E1000007A77EE277AA54BC3ED007A9F4B93EDCE
:100E2000007AD7ED087A27EE277AD7ED097A37EEE0
:100E3000277A9E4BD3ED006AD7ED077A66EEA77A44
:100E400037EE277A954BD3ED006AD7ED067A66EE3A
:100E5000A76A964BD3ED007A66EEA77A77EE277AEB
:100E600017EE900AFFF778FB04460D467869FFF706
:100E700073FB80468946894B1B681846FFF76CFB5D
:100E800002460B469FED781B43EC102B02F044F812
:100E900053EC102B40464946FFF7B6FB02460B4683
:100EA00020462946FFF7FAF902460B469046994636
:100EB0003869FFF751FB04460D467C4B1B6818460A
:100EC000FFF74AFB02460B469FED671B43EC102BD6
:100ED00002F022F853EC102B20462946FFF794FB32
:100EE00002460B4640464946FFF7D8F902460B46F4
:100EF00090469946F868FFF72FFB04460D46674B6E
:100F00001B681846FFF728FB02460B469FED561B51
:100F100043EC102B02F000F853EC102B204629462E
:100F2000FFF772FB02460B4614461D465F4B1B68DB
:100F30001846FFF711FB02460B4620462946FFF7ED
:100F400063FB02460B4640464946FFF7A7F90246B7
:100F50000B4690469946514B93ED007AD7ED027AB5
:100F600067EE277A17EE900AFFF7F6FA04460D4669
:100F70004E4B1B681846FFF7EFFA02460B469FEDF3
:100F80003A1B43EC102B01F0C7FF53EC102B20460B
:100F90002946FFF739FB02460B4640464946FFF714
:100FA0007DF902460B46904699467868FFF7D4FAD9
:100FB00004460D46394B1B681846FFF7CDFA02462A
:100FC0000B469FED291B43EC102B01F0A5FF53ECC2
:100FD000102B20462946FFF717FB02460B46144606
:100FE0001D46324B1B681846FFF7B6FA02460B4601
:100FF0009FED1D1B43EC102B01F08EFF53EC102BCB
:1010000020462946FFF700FB02460B46404649466C
:10101000FFF744F902460B4610461946FFF7A4FDB8
:101020000346234A1360224BD3ED007A9FED1C7ACE
:1010300077EEC77AB1EE047A27EE877AF2EE026A8B
:10104000C7EE267A1A4BC3ED007A194BD3ED007A1E
:10105000FDEEE77A17EE903A18462837BD46BDE810
:10106000B08300BFAFF3008000000000000000402C
:10107000198429C211230340164B2241482666BE1B
:10108000E00FE0BBF88760BDAC0DA13AC88F5F3AB6
:10109000F18B05B6B0000020AC000020BC000020A1
:1010A00000000042A8000020A4000020C000002092
:1010B000B800002080B59CB000AF78603960002394
:1010C000FB66394800F0AAFB00F0A8FA0A2000F0FD
:1010D00016FA00F0B7FA354800F0A0FB0023FB66D3
:1010E00000F09CFA05E001220121314800F0D6FB16
:1010F000F866FB6E002B03D12E4B1B68002BF2D041
:1011000000F0A0FA2C4800F089FB0023FB6600F0F9
:1011100085FA05E001220121254800F0BFFBF866B1
:10112000FB6E002B03D1234B1B68002BF2D000F089
:1011300089FA07F108003B687A68204901F050FA03
:1011400007F10803184600F069FB0023FB6600F076
:1011500065FA05E001220121154800F09FFBF866C1
:10116000FB6E002B03D1134B1B68002BF2D000F059
:1011700069FA134800F052FB0023FB6600F04EFAB8
:1011800005E0012201210A4800F088FBF866FB6EA9
:10119000002B03D1074B1B68002BF2D000F052FA52
:1011A00000BF7037BD4680BDA03D0008AC3D0008C3
:1011B000B43D00089C000020BC3D0008CC3D000868
:1011C000E43D000880B5ADF51E7D02AF07F51C7348
:1011D000A3F51973186007F51C73A3F51A7319604A
:1011E00007F51C73A3F51B731A600023C7F86C3254
:1011F000474800F013FB0023C7F86C3200F00EFAEA
:1012000006E001220021434800F048FBC7F86C02C9
:10121000D7F86C32002B03D13F4B1B68002BF0D06A
:1012200000F010FA07F51C73A3F51A7307F51C728A
:10123000A2F5197207F5A07007F51C71A1F51B71D5
:10124000096800911B681268344901F0C9F907F573
:10125000A0731846FEF7C4FF024607F11403304995
:10126000184601F0BDF907F11403184600F0D6FA4C
:101270000023C7F86C3200F0D1F906E0012200210A
:10128000284800F00BFBC7F86C02D7F86C32002B33
:1012900003D1214B1B68002BF0D000F0D3F907F5E8
:1012A000A073184600F0BAFA0023C7F86C3200F0B9
:1012B000B5F906E0002200211B4800F0EFFAC7F85C
:1012C0006C02D7F86C32002B03D1134B1B68002B38
:1012D000F0D000F0B7F90023C7F86C3200F09EF9A7
:1012E00006E001220021114800F0D8FAC7F86C028C
:1012F000D7F86C32002B03D1074B1B68002BF0D0C2
:1013000000F0A0F900BF07F51C77BD4680BD00BF07
:10131000F43D0008B43D00089C000020203E000879
:10132000443E0008543E0008583E0008643E000851
:1013300080B400AF1A4B1B6B194A43F002031363CE
:10134000184B1B68174A43F480531360154B1B68F6
:10135000144A23F400531360124B5B68114A23F0C4
:10136000400353600F4B9B680E4A23F480539360F5
:101370000C4B9B680B4A23F400539360094BDB68CA
:10138000084A23F48053D360064BDB68054A23F4F4
:101390000053D36000BFBD465DF8047B704700BFBB
:1013A000003802400004024080B485B000AF78608D
:1013B0000A4B1B69FB6001227B6802FA03F3FA689F
:1013C00092FBF3F3002B03F00103B8BF5B42184616
:1013D0001437BD465DF8047B704700BF000402402F
:1013E00080B400AF194B1B6C184A43F0010313641F
:1013F0004FF080430F229A624FF080430122DA625D
:101400004FF08043DB684FF0804243F00103D3602C
:101410000F4B302283F81C230D4B4FF080521A6083
:101420004FF080431B694FF0804223F001031361AA
:101430004FF080431B684FF0804223F0010313609C
:1014400000BFBD465DF8047B704700BF0038024016
:1014500000E100E080B400AF0B4B01221A604FF0B6
:1014600080431B684FF0804223F0010313604FF06C
:1014700080431B694FF0804223F00103136100BFDA
:10148000BD465DF8047B70479000002080B483B0B7
:1014900000AF78604FF080427B68D3620B4B002234
:1014A0001A604FF080431B684FF0804243F0010305
:1014B000136000BF054B1B68002BFBD000BF00BFB3
:1014C0000C37BD465DF8047B704700BF90000020DC
:1014D00080B584B000AF78600023FB6006E04FF475
:1014E0007A70FFF7D3FFFB680133FB60FA687B6813
:1014F0009A42F4DD00BF00BF1037BD4680BD80B505
:1015000084B000AF78600023FB6006E04FF47A708F
:10151000FFF7DEFFFB680133FB60FA687B689A42E5
:10152000F4DD00BF00BF1037BD4680BD80B400AF02
:10153000BFF34F8F00BF064BDB6803F4E062044942
:10154000044B1343CB60BFF34F8F00BF00BFFDE7D9
:1015500000ED00E00400FA0580B400AF164B1B6CF0
:10156000154A43F002031364144B4FF223429A626C
:10157000124B4FF48042DA62104BDB680F4A43F0A3
:101580000103D3600E4B102283F81D230C4B4FF048
:1015900000521A60094B1B69084A23F001031361CA
:1015A000064B1B68054A23F00103136000BFBD46CC
:1015B0005DF8047B704700BF003802400004004023
:1015C00000E100E080B500AF104B1B68002B09D094
:1015D0000E4B00221A600E4B1B690D4A23F00103CB
:1015E000136111E00B4B1B6801330A4A13600A4B6D
:1015F00001221A60064B00221A61064B1B680A2B57
:1016000001D1FFF793FF00BF00BF80BD04000020A1
:1016100000040040980000209C00002080B400AF2F
:10162000074B4FF48042DA62054B1B68044A43F0D3
:101630000103136000BFBD465DF8047B704700BF27
:101640000004004080B400AF094B1B68084A23F037
:1016500001031360064B1B69054A23F00103136164
:10166000034B00225A6200BFBD465DF8047B704701
:101670000004004080B400AF404B1B6B3F4A43F076
:10168000010313633E4B1B683D4A23F48003136040
:101690003B4B1B683A4A43F400031360384B1B680A
:1016A000374A23F080731360354B1B68344A43F08C
:1016B00000731360324B4FF408225A622F4B5B6C5D
:1016C0002E4A43F0200353642C4B5B6A2B4A43F0B1
:1016D00020035362294B5B6A284A23F0200353629C
:1016E000284BDB68274A23F00C03D360254BDB68CB
:1016F000244A43F40053D360224B9B68214A1B0CBD
:101700001B0493601F4B9B681E4A43F08B0393603E
:101710001C4BDB681B4A23F40043D360194B1B6945
:10172000184A23F440531361164BDB68154A23F41F
:101730008063D360134B1B69124A23F40063136167
:10174000104BDB680F4A23F48053D3600D4B5B6969
:101750000C4A23F4407353610B4B202283F8472338
:10176000094B80229A60074BDB68064A43F02C0342
:10177000D36000BFBD465DF8047B7047003802406F
:10178000000002400014014000E100E080B400AF1E
:101790000F4B1B6803F02003002B13D00C4B5A682F
:1017A0000C4B1B68D1B20C4AD1540A4B1B68013355
:1017B000084A1360074B1B68B3F5967F02D1054BAF
:1017C00000221A6000BFBD465DF8047B704700BF71
:1017D00000140140C4000020C800002080B483B081
:1017E00000AF0346FB7100BF0B4B1B6803F0800387
:1017F000002BF9D0084AFB79536000BF064B1B68E9
:1018000003F04003002BF9D000BF00BF0C37BD46EA
:101810005DF8047B704700BF0014014080B584B0C0
:1018200000AF78600023FB607868FEF7D9FC0346C0
:10183000BB6009E0FB687A6813441B781846FFF721
:10184000CDFFFB680133FB60FA68BB689A42F1DBAD
:1018500000BF00BF1037BD4680BD000080B582B01C
:1018600000AF00237B6007E00A4A7B681344002234
:101870001A707B6801337B607B68B3F5967FF3DB7E
:10188000054B00221A60C820FFF722FE00BF083770
:10189000BD4680BDC8000020C400002080B588B0CF
:1018A00000AFF860B9607A600023FB610023BB6180
:1018B00000237B6102E0FB690133FB61BB69FA68CD
:1018C00013441A782A49FB690B441B789A42F2D1D7
:1018D00039E0274AFB6913441A78264B1A70BB6912
:1018E000FA6813441A78244B1A70C820FFF7F0FDE9
:1018F000BB68002B02D00120FFF701FEBB6901335A
:10190000BB61FB690133FB61194AFB6913441B7816
:10191000002B05D0BB69FA6813441B78002B02D159
:1019200001237B6109E0BB69FA6813441A78104906
:10193000FB690B441B789A42CBD07B69002B09D101
:10194000FB690133FB610A4AFB6913441B78002BD6
:10195000E9D100E000BF7B69002B04D07B68002B3D
:1019600001D0FFF77BFF7B6918462037BD4680BD5D
:10197000C8000020940000209500002080B582B0AF
:1019800000AF3E4B40F2CD721A60FFF7D1FCFFF77B
:1019900027FDFFF7E1FD0520FFF7B1FD374B40F6CE
:1019A000B5321A60FFF766FE00F0B6F834493548E4
:1019B000FFF780FB344B00221A60344BDB68334A5C
:1019C00023F00103D360FFF729FEFFF71DF9FFF7AE
:1019D0004DF9FFF7A1F9FFF735FE2C4BDB682B4AD9
:1019E00043F00103D360FFF7D3F97860284A7B689E
:1019F00013607B68292B03DD002000F0D9FC0CE08C
:101A00007B68292B06DC7B68202B03DD012000F09E
:101A1000CFFC02E0022000F0CBFC1E4BD3ED007A9D
:101A2000FDEEE77A17EE902A01211B48FFF7CAFB6B
:101A3000154B1B68002B02D11420FFF760FD174BDC
:101A4000D3ED007AFDEEE77A17EE902A02211248D4
:101A5000FFF7B8FB0C4B1B68002B02D11420FFF7DB
:101A60004EFD7A6803210C48FFF7ACFB064B1B6860
:101A7000002B9FD13C20FFF742FD9BE78C0000200C
:101A80006C3E00087C3E00089C00002000080040DE
:101A900000000020AC000020803E0008A4000020D0
:101AA00080B400AF194B1B6C184A43F00403136455
:101AB000174B40F23F629A62154B0422DA62144BD4
:101AC000DB68134A43F00103D360124B602283F8B2
:101AD0001E23104B1B680F4A43F0804313600C4BCE
:101AE0001B690B4A23F001031361094B5B69084A28
:101AF00043F001035361064B1B68054A43F00103A1
:101B0000136000BFBD465DF8047B7047003802409B
:101B10000008004000E100E080B500AFFFF7C0FF23
:101B2000984B1B6B974A43F001031363954B1B6B58
:101B3000944A43F002031363924B1B6B914A43F0A8
:101B400004031363904B1B688F4A23F00203136056
:101B50008D4B1B688C4A43F0010313608A4B5B6812
:101B6000894A23F001035360874B5B69864A43F03F
:101B700001035361854B1B68844A23F4006313609F
:101B8000824B1B68814A43F4806313607F4B5B6820
:101B90007E4A23F0200353607C4B5B697B4A43F011
:101BA00020035361794B1B68784A23F40073136058
:101BB000764B1B68754A43F480731360734B5B6804
:101BC000724A23F010035360704B5B696F4A43F015
:101BD000100353616C4B1B686B4A23F008031360BE
:101BE000694B1B68684A43F004031360664B5B68EB
:101BF000654A23F002035360634B5B69624A43F01A
:101C000002035361614B1B68604A23F08003136039
:101C10005E4B1B685D4A43F0400313605B4B5B689F
:101C20005A4A23F008035360584B5B69574A23F024
:101C300008035361544B1B68534A23F40033136069
:101C4000514B1B68504A43F4803313604E4B5B6822
:101C50004D4A23F4807353604B4B5B694A4A23F42B
:101C6000807353614A4B1B68494A23F00203136097
:101C7000474B1B68464A43F001031360444B5B68C3
:101C8000434A23F001035360414B5B69404A23F010
:101C9000010353613E4B1B683D4A23F00803136068
:101CA0003B4B1B683A4A43F004031360384B5B68B4
:101CB000374A23F002035360354B5B69344A23F003
:101CC00002035361314B1B68304A23F00203136057
:101CD0002E4B1B682D4A43F0010313602B4B5B68AE
:101CE0002A4A23F001035360284B5B69274A23F0FB
:101CF00001035361254B1B68244A23F4001313602E
:101D0000224B1B68214A43F4801313601F4B5B680E
:101D10001E4A23F4806353601C4B5B691B4A23F407
:101D200080635361184B1B68174A23F400731360D8
:101D3000154B1B68144A43F480731360124B5B68A5
:101D4000114A23F0100353600F4B5B690E4A23F0D6
:101D5000100353610E4B1B680D4A23F400231360DC
:101D60000B4B1B680A4A43F480231360084B5B68E3
:101D7000074A23F002035360054B5B69044A23F4CE
:101D8000007307E0003802400000024000040240F7
:101D9000000802405361194B1B68184A23F40033B2
:101DA0001360164B1B68154A43F480331360134BC2
:101DB0005B68124A23F002035360104B5B690F4AC1
:101DC00023F4807353610D4B1B680C4A23F40023EA
:101DD00013600A4B1B68094A43F480231360074BC6
:101DE0005B68064A23F002035360044B5B69034AB5
:101DF00023F40073536100BF80BD00BF00040240A4
:101E000080B489B000AF78607B6842F20F72934271
:101E100003DD42F20F737B6004E07B68002B01DA84
:101E200000237B607B68A04A82FB03129211DB17C0
:101E3000D21A9E4B83FB02139910D317C91A0B4673
:101E40009B000B445B00D31A7B617B68984A82FB42
:101E500003125211DB17D21A944B83FB0213991011
:101E6000D317C91A0B469B000B445B00D31A3B6186
:101E70007B688E4A82FB03129210DB17D21A8B4BBF
:101E800083FB02139910D317C91A0B469B000B440E
:101E90005B00D31AFB607A68844B83FB02139910B2
:101EA000D317C91A0B469B000B445B00D31ABB60C7
:101EB0000023FB617F4B1B68032B00F2838001A290
:101EC00052F823F0D51E0008111F00084D1F00080E
:101ED000891F00087B69FB61774B5B69764A23F0B9
:101EE00001035361754B5B69744A43F020035361EE
:101EF000724B5B69714A43F0100353616E4B5B692F
:101F00006D4A43F0020353616A4B03221A6059E0A1
:101F10003B69FB61684B5B69674A43F001035361AE
:101F2000664B5B69654A23F020035361634B5B6931
:101F3000624A43F0100353615F4B5B695E4A43F0B2
:101F4000020353615B4B00221A603BE0FB68FB61BC
:101F5000594B5B69584A43F001035361574B5B6926
:101F6000564A43F020035361544B5B69534A23F0B4
:101F700010035361504B5B694F4A43F002035361B6
:101F80004C4B01221A601DE0BB68FB614A4B5B6948
:101F9000494A43F001035361484B5B69474A43F0A8
:101FA00020035361454B5B69444A43F0100353617E
:101FB000414B5B69404A23F0020353613D4B0222CF
:101FC0001A6000BFFB69092B00F2DB8101A252F805
:101FD00023F000BFFD1F000853200008C5200008A3
:101FE0001B21000871210008C72100081D220008DC
:101FF00073220008C92200082D2300082F4B5B69BB
:102000002E4A43F0080353612B4B5B692A4A43F481
:10201000807353612A4B5B69294A43F00103536182
:10202000274B5B69264A43F002035361234B5B69EC
:10203000224A43F001035361204B5B691F4A43F47A
:10204000806353611C4B5B691B4A23F0100353618F
:1020500097E11A4B5B69194A23F008035361164B49
:102060005B69154A43F480735361154B5B69144AED
:1020700043F001035361124B5B69114A23F00203E1
:1020800053610E4B5B690D4A23F0010353610B4B07
:102090005B690A4A23F480635361074B5B69064A14
:1020A00023F0100353616CE1D34D621067666666DE
:1020B0001F85EB51A00000200000024000040240F8
:1020C00000080240964B5B69954A43F00803536150
:1020D000944B5B69934A43F480735361924B5B6901
:1020E000914A23F0010353618F4B5B698E4A43F0A1
:1020F000020353618A4B5B69894A43F001035361D0
:10210000874B5B69864A23F480635361854B5B6927
:10211000844A43F01003536133E1814B5B69804A89
:1021200043F0080353617F4B5B697E4A43F480733D
:1021300053617D4B5B697C4A43F0010353617A4BE9
:102140005B69794A43F002035361754B5B69744ADA
:1021500023F001035361724B5B69714A23F480637E
:102160005361704B5B696F4A43F01003536108E1A0
:102170006B4B5B696A4A23F008035361694B5B69E7
:10218000684A43F480735361674B5B69664A43F066
:1021900001035361644B5B69634A23F0020353619B
:1021A0005F4B5B695E4A23F0010353615C4B5B69E3
:1021B0005B4A43F4806353615A4B5B69594A43F06D
:1021C00010035361DDE0564B5B69554A43F0080349
:1021D0005361544B5B69534A23F480735361524BF0
:1021E0005B69514A43F0010353614F4B5B694E4AAF
:1021F00043F0020353614A4B5B69494A23F00103F0
:102200005361474B5B69464A43F480635361454BD6
:102210005B69444A43F010035361B2E0404B5B6991
:102220003F4A43F0080353613E4B5B693D4A23F448
:10223000807353613C4B5B693B4A43F0010353613C
:10224000394B5B69384A43F002035361344B5B6995
:10225000334A43F001035361314B5B69304A43F425
:10226000806353612F4B5B692E4A43F01003536127
:1022700087E02B4B5B692A4A43F008035361294BE3
:102280005B69284A43F480735361274B5B69264A94
:1022900043F001035361244B5B69234A23F002039B
:1022A00053611F4B5B691E4A23F0010353611C4BB2
:1022B0005B691B4A23F4806353611A4B5B69194ABB
:1022C00023F0100353615CE0154B5B69144A43F043
:1022D00008035361134B5B69124A43F480735361E3
:1022E000114B5B69104A43F0010353610E4B5B696C
:1022F0000D4A43F002035361094B5B69084A43F0FE
:1023000001035361064B5B69054A43F480635361E3
:10231000044B5B69034A43F01003536131E000BF93
:102320000004024000000240000802401D4B5B69AF
:102330001C4A43F0080353611B4B5B691A4A43F480
:1023400080735361194B5B69184A43F00103536171
:10235000164B5B69154A43F002035361114B5B69ED
:10236000104A23F0010353610E4B5B690D4A43F49D
:10237000806353610C4B5B690B4A43F0100353615C
:1023800000BF0023BB6102E0BB690133BB61BB69D5
:10239000B3F57A7FF8DB00BF00BF2437BD465DF898
:1023A000047B704700040240000002400008024025
:1023B00080B483B000AF78607B68022B2FD07B683D
:1023C000022B3FDC7B68002B03D07B68012B13D0F2
:1023D00038E01F4B5B691E4A23F4007353611D4BA9
:1023E0005B691C4A23F4807353611A4B5B69194A79
:1023F00043F40073536125E0154B5B69144A23F4E1
:1024000000735361134B5B69124A43F48073536149
:10241000104B5B690F4A23F40073536112E00C4BBD
:102420005B690B4A43F4007353610A4B5B69094AC9
:1024300023F480735361074B5B69064A23F40073EE
:10244000536100BF00BF0C37BD465DF8047B704789
:10245000000802400004024080B500AF064B1B6834
:102460001846FFF7CDFC054B1B69044A23F0050312
:10247000136100BF80BD00BF0000002000080040C5
:1024800080B400AFFEE780B400AFFEE780B400AFD9
:10249000FEE780B400AFFEE780B400AFFEE780B493
:1024A00000AF00BFBD465DF8047B704780B400AF4D
:1024B00000BFBD465DF8047B704780B400AF00BF2D
:1024C000BD465DF8047B704780B500AF00F074F83E
:1024D00000BF80BD80B586B000AF7860144A154B50
:1024E000D31A7B617B693B61134B1B68002B02D1C4
:1024F000114B124A1A60104B1A687B6813443A69F0
:102500009A4207D200F08CF803460C221A604FF072
:10251000FF3309E0084B1B68FB60074B1A687B68B8
:102520001344054A1360FB6818461837BD4680BD42
:102530000000022000040000F401002048030020F5
:1025400080B400AF064BD3F88830054A43F47003DB
:10255000C2F8883000BFBD465DF8047B704700BFFD
:1025600000ED00E0DFF834D00D480E490E4A00239C
:1025700002E0D458C4500433C4188C42F9D30B4A37
:102580000B4C002301E013600432A242FBD3FFF79F
:10259000D7FF00F04BF8FFF7F1F970470000022079
:1025A0000000002070000020003F000870000020A4
:1025B00044030020FEE7000080B400AF064B1B7808
:1025C0001A46064B1B681344044A136000BFBD46FD
:1025D0005DF8047B704700BF08000020F801002070
:1025E0000EB400B59CB01DAB029006906FF0004198
:1025F000094807910491094953F8042B0591006893
:10260000019302A900F08AF9029B00221A701CB003
:102610005DF804EB03B07047580000200802FFFF8C
:10262000014B1868704700BF5800002070B50D4D71
:102630000D4C641BA4100026A64209D10B4D0C4C76
:1026400001F0A2FB641BA4100026A64205D170BDB8
:1026500055F8043B98470136EEE755F8043B984798
:102660000136F2E7F83E0008F83E0008F83E0008A0
:10267000FC3E00087047704737B5002944D051F838
:10268000043C0190002BA1F10404B8BFE41800F051
:10269000DFF81E4A0198136833B96360146003B011
:1026A000BDE8304000F0DAB8A34208D925686119C6
:1026B0008B4201BF19685B6849192160EDE71A4632
:1026C0005B680BB1A342FAD911685518A5420BD12A
:1026D000246821445418A3421160E0D11C685B684F
:1026E00053600C441460DAE702D90C230360D6E788
:1026F000256861198B4204BF19685B68636004BF79
:10270000491921605460CAE703B030BD3C03002082
:1027100070B50E4E0C463168054611B900F0A6FBA7
:1027200030602146284600F0A1FB431C0AD0C41C9F
:1027300024F00304A04207D0211A284600F096FB9B
:10274000013001D14FF0FF34204670BD400300201E
:102750002DE9F843CD1C25F0030508350C2D38BFB5
:102760000C25002D074601DBA94205D90C233B604F
:1027700000263046BDE8F883DFF8D08000F068F826
:10278000D8F800301C465CBB29463846FFF7C0FF2E
:10279000431C044655D1D8F800402646002E45D1AA
:1027A000002C48D023683146384604EB030900F07A
:1027B0005DFB81453FD121686D1A29463846FFF7F8
:1027C000A7FF013037D023682B442360D8F80030AE
:1027D000002B38D05A68A2422BD100225A600FE059
:1027E0002268521B1FD40B2A17D96119A3422560F6
:1027F00018BF5960636808BFC8F8001062514B6089
:10280000384604F10B0600F029F826F00706231DD0
:10281000F21AAED09B1BA350ABE7A3426268DDD196
:10282000C8F80020ECE723466468ACE734467668D5
:10283000B4E71346CCE70C233B60384600F00EF8B3
:1028400097E72560DCE75B60FFDE00BF3C0300200C
:102850000148FFF70FBF00BF380300200148FFF712
:102860000ABF00BF380300202DE9F0478E681F46DD
:10287000BE420B6882460C4690462CD88A8912F4D8
:10288000906F26D06569096905EB4505A3EB010941
:1028900005EBD5757B1C4B446D109D4238BF1D4622
:1028A000530527D52946FFF753FF064660B3216934
:1028B0004A4600F0EBFAA38923F4906343F08003C7
:1028C000A381266165614E44A5EB09052660A560DC
:1028D0003E46BE4200D93E4620683246414600F0A0
:1028E000ABFAA3689B1BA3602368334423600020DA
:1028F000BDE8F0872A4600F0D7FA06460028E0D166
:1029000021695046FFF7B8FE0C23CAF80030A389AE
:1029100043F04003A3814FF0FF30E9E72DE9F04F8A
:1029200098468B891B069DB007460D4614460ED56A
:102930000B6963B94021FFF70BFF2860286120B9BC
:102940000C233B604FF0FF30D0E040236B6100234D
:10295000099320238DF82930CDF80C803023DFF83F
:10296000A4818DF82A304FF0010923469A4613F8C6
:10297000012B0AB1252AF9D1BAEB040B0BD05B4627
:10298000224629463846FFF76FFF013000F0A98044
:10299000099A5A4409929AF80030002B00F0A1805D
:1029A00000234FF0FF32CDE905230AF1010A049319
:1029B00007938DF853301A935446052214F8011BDF
:1029C0005048FDF715FC049AD8B9D00644BF20231F
:1029D0008DF85330110744BF2B238DF853309AF8EC
:1029E00000302A2B15D0079A544600204FF00A0CCD
:1029F000214611F8013B303B092B4DD9B0B107926C
:102A000014E0A0EB080309FA03F313430493A2466E
:102A1000D2E7039B191D1B680391002BBBBF5B42D0
:102A200042F0020207930793B8BF049223782E2B3B
:102A30000CD163782A2B34D1039B1A1D1B68039297
:102A4000002BB8BF4FF0FF3302340593DFF8C4A06A
:102A5000217803225046FDF7CBFB38B1049BA0EB55
:102A60000A004022824013430134049314F8011BEE
:102A700025488DF828100622FDF7BAFB002838D02B
:102A8000224B1BBB039B073323F00703083303933D
:102A9000099B3344099368E70CFB02320C46012082
:102AA000A6E700230134059319464FF00A0C20468F
:102AB00010F8012B303A092A03D9002BC6D0059112
:102AC000C4E70CFB012104460123F0E703AB0093AC
:102AD0002A460F4B04A93846AFF30080421C064635
:102AE000D6D1AB895B063FF52DAF09981DB0BDE887
:102AF000F08F03AB00932A46054B04A9384600F03B
:102B000079F8EBE7913E00089B3E000800000000CA
:102B100069280008973E00082DE9F04716469946B7
:102B20008A680B69DDF820809342B8BF1346336092
:102B300091F8432007460C460AB1013333602368FD
:102B4000990642BF336802333360256815F00605E5
:102B500006D104F1190AE36832689B1AAB4226DCFD
:102B600094F84320131E226818BF012392062BD429
:102B700004F1430249463846C04701301ED023685D
:102B8000226903F00603042B02BFE5683368ED1ADF
:102B9000A3680CBF25EAE57500259342C4BF9B1AC4
:102BA000ED1800261A34B5421AD1002008E001239E
:102BB000524649463846C047013003D14FF0FF30F6
:102BC000BDE8F0870135C6E7E1185A1C302081F8CE
:102BD0004300224494F8451082F843100233C7E7BB
:102BE0000123224649463846C0470130E6D0013627
:102BF000D9E700002DE9FF470F7E0C9D782F914605
:102C000080460C469A4601F1430207D8622F0AD843
:102C1000002F00F0D480582F00F0C08004F142054E
:102C200084F842703AE0A7F16303152BF6D801A1AE
:102C300051F823F08D2C0008A12C00081D2C000851
:102C40001D2C00081D2C00081D2C0008A12C0008BC
:102C50001D2C00081D2C00081D2C00081D2C000830
:102C6000A52D0008CD2C00085F2D00081D2C0008A4
:102C70001D2C0008C72D00081D2C0008CD2C0008B5
:102C80001D2C00081D2C0008672D00082B681A1D3C
:102C90001B682A6004F1420584F8423001239FE05A
:102CA00020682B68070603F10401296001D51E681E
:102CB00003E04606FBD5B3F90060002E03DA2D23AE
:102CC000764284F843305A480A2312E02B68206881
:102CD000191D2960050601D51E6802E04106FBD5D5
:102CE0001E8853486F2F0CBF08230A23002184F845
:102CF00043106568A560002DA2BF216821F0040182
:102D000021600EB9002D4BD01546B6FBF3F103FB45
:102D10001167C75D05F8017D3746BB420E46F4D901
:102D2000082B0BD12368DE0708D523696168994217
:102D3000DEBF302305F8013C05F1FF35521B22614F
:102D4000CDF800A04B4603AA21464046FFF7E4FE1B
:102D500001304AD14FF0FF3004B0BDE8F08723685E
:102D600043F0200323603348782784F845702368B4
:102D700029681F0651F8046B02D45F0648BFB6B23B
:102D8000DF0748BF43F02003296048BF23601EB916
:102D9000236823F0200323601023A7E72448E4E7F7
:102DA0001546BDE72B6826686169181D2860350641
:102DB0001B6801D5196002E07006FBD5198000235D
:102DC00023611546BCE72B681A1D2A601D686268DE
:102DD00000212846FDF70CFA08B1401B60606368CB
:102DE0002361002384F84330AAE723692A46494631
:102DF0004046D0470130ADD023689B0713D4E0682C
:102E0000039B9842B8BF1846A6E7012332464946BD
:102E10004046D04701309DD00135E36803995B1AE5
:102E2000AB42F2DCEBE7002504F11906F5E700BF41
:102E3000A23E0008B33E0008884210B501EB020430
:102E400002D98442234607D8431EA14208D011F874
:102E5000012B03F8012FF8E7024401468A4200D112
:102E600010BD13F8014D02F8014DF7E738B5064DD6
:102E70000023044608462B60FFF72CFB431C02D1BD
:102E80002B6803B1236038BD340300200A4491420B
:102E900000F1FF3300D1704710B511F8014B03F872
:102EA000014F9142F9D110BD2DE9F0418046144601
:102EB0000E4621B9BDE8F0411146FFF749BC2AB9D9
:102EC000FFF7DAFB25462846BDE8F08100F01BF845
:102ED0008442074602D8B4EB500F12D82146404630
:102EE000FFF736FC05460028EDD0BC4222463146AD
:102EF00028BF3A46FFF7CAFF31464046FFF7BCFB02
:102F0000E1E73546DFE751F8043C181F002BBCBF52
:102F10000B58C01870470000F8B52DED028BB0EECD
:102F2000408AF0EE608A55EC114B00F071F82246B1
:102F30002B462046294657EC106BFDF7FFFD002875
:102F40003BD151EC180B00220023FDF7C5FDB8B1B1
:102F50000022002320462946FDF7BEFD002846D169
:102F600045EC104B00F048F838B30022002320460F
:102F70002946FDF7BBFD00B3FFF752FB22231BE000
:102F800047EC106B00F038F8E0B9B0EE480AF0EE0C
:102F9000680A00F031F8A8B145EC104B00F02CF8AD
:102FA00080B132463B4630463946FDF7C7FD002822
:102FB000E2D0FFF735FB21230360BDEC028B47EC29
:102FC000106BF8BD0022002330463946FDF784FD22
:102FD0000028F2D0B0EE480AF0EE680A00F00CF8D3
:102FE0000028EAD045EC104B00F006F8C3E7014F8B
:102FF0000026E2E70000F03F82B08DED000B019863
:1030000040F0004000F58010C00F02B07047000093
:103010002DE9F04F2DED068B89B08DED001BDDE91C
:10302000002929F0004858EA020157EC106B15D12D
:10303000B31987F4002252419942894B934180F0A1
:10304000D184DDE9002330463946FDF727F941EC0C
:10305000100B09B0BDEC068BBDE8F08F814B27F05B
:1030600000449C4210EE10AA3D4606DC01D1002E21
:10307000E7D1984501DC0FD172B105F1404505F566
:10308000801555EA0A05DCD1DDE90032DB1882F44F
:10309000002252419D42D0E7002D3BDA724B984509
:1030A00051DCA3F15473984540F3AB844FEA2853A5
:1030B000A3F2FF33142B0FDDC3F1340322FA03F123
:1030C00001FA03F3934240F09C8401F00101C1F145
:1030D0000203049382B15FE0002A5BD1C3F11403C1
:1030E00048FA03F101FA03F3434540F0878401F005
:1030F0000101C1F1020304935C4B984532D1B9F14F
:10310000000F80F27784594932463B460020FDF794
:10311000A5FB9CE700230493002A3DD1514B984521
:10312000EAD104F1404303F5801353EA0A0300F0A7
:1031300059844F4B9C4208DDB9F1000FC0F2568410
:10314000DDE9000183E70223E5E7B9F1000F4FF065
:1031500000004FF00001BFF67AAFDDE9000303F194
:10316000004174E7B9F1804F06D132463B46304604
:103170003946FDF749FA6AE73E4B99450CD1002DD7
:103180000ADB47EC106B09B0BDEC068BBDE8F04FD5
:1031900000F020BD0023049347EC106B00F062FCAC
:1031A00051EC100BBAF1000F29D124B12F4B25F0AF
:1031B00040429A4223D1B9F1000F05DA02460B468C
:1031C00000202A49FDF74AFB002DBFF640AF049BC3
:1031D00004F1404404F580141C4308D102460B4618
:1031E00010461946FDF758F802460B468FE7049B38
:1031F000012B7FF42CAF01F10043194627E7EB0FB9
:10320000013B0693069A049B134302D132463B4688
:10321000E6E7194B984540F3FB8003F104739845AA
:10322000134B0CDD9C420FDCB9F1000F0FDA0020CC
:1032300009B0BDEC068BBDE8F04F00F0C2BC9C426B
:10324000F2DB0A4B9C4219DDB9F1000FEFDC0020E4
:1032500009B0BDEC068BBDE8F04F00F0A9BC00BF83
:103260000000F0FF0000F07FFFFF3F430000F03F51
:10327000FFFFEF3F0000E03F0000E041604B002215
:10328000FDF70AF854A3D3E9002304460D46FDF7E1
:10329000BBF953A3D3E9002306460F46204629462F
:1032A000FDF7B2F9574B82468B460022204629464D
:1032B000FDF7AAF902460B464BA1D1E90001FCF744
:1032C000EBFF22462B46FDF79FF902460B460020F6
:1032D0004D49FCF7E1FF2246804689462B462046B1
:1032E0002946FDF791F902460B4640464946FDF74F
:1032F0008BF93FA3D3E90023FDF786F902460B467D
:1033000050465946FCF7C8FF02460B4680468946A0
:1033100030463946FCF7C2FF002032463B460446A1
:103320000D46FCF7B9FF02460B4640464946FCF7FE
:10333000B3FF049B069A013B134382468B4640F041
:10334000E7819FED2D7BB0EE478AF0EE678ADDE9DD
:103350000067002632463B46DDE90001FCF79CFF92
:1033600022462B46FDF750F9DDE9002380468946C9
:1033700050465946FDF748F902460B464046494635
:10338000FCF78CFF32463B4680468946204629465C
:10339000FDF73AF90B4604460D46024649464046BB
:1033A000FCF77CFF194B994245EC194B06460F463A
:1033B0008B4640F3F08201F13F4303F5E003034302
:1033C00000F0E48151EC180B00220023FDF78EFB86
:1033D000003818BF01202BE7000000604715F73FB9
:1033E00044DF5DF80BAE543E555555555555D53F08
:1033F000FE822B654715F73F000000000000F0BF7C
:103400000000F03F0000D03F0000E03FFFFF8F4092
:10341000D54B2B4000222BB9D44BFDF7F5F86FF0BC
:1034200034020C462315A3F2FF3313440593D04B0B
:10343000C4F3130444F07F559C4245F4401508DD65
:10344000CC4B9C4240F36281059B01330593A5F56B
:1034500080150024E3000793C74B03EBC40393EDEF
:10346000007B294653EC172BB0EE479AF0EE679A93
:103470008246FCF711FF524606460F462B4651EC9A
:10348000190BFCF70BFF02460B460020BB49FDF76A
:10349000E5F941EC1A0B02460B4630463946FDF77A
:1034A000B3F80023CDE902010293DDE90289AB46BE
:1034B0006D1045F0005505F5002541EC180B05EBA6
:1034C000844300224046494614461D46FDF79CF8B9
:1034D00002460B4630463946FCF7DEFE53EC192B0C
:1034E00006460F4620462946FCF7D6FE02460B4606
:1034F00050465946FCF7D0FE42464B46FDF784F84D
:1035000002460B4630463946FCF7C6FE53EC1A2BF2
:10351000FDF77AF853EC182B41EC190B51EC180B12
:10352000FDF772F87CA3D3E9002304460D46FDF7AE
:103530006BF87BA3D3E90023FCF7B0FE22462B46B1
:10354000FDF762F878A3D3E90023FCF7A7FE224633
:103550002B46FDF759F876A3D3E90023FCF79EFE2E
:1035600022462B46FDF750F873A3D3E90023FCF75E
:1035700095FE22462B46FDF747F871A3D3E90023B9
:10358000FCF78CFE224606460F462B46204629466F
:10359000FDF73AF802460B4630463946FDF734F857
:1035A000424604460D464B4651EC180BFCF776FE9E
:1035B00053EC192BFDF728F822462B46FCF76EFE3C
:1035C000424682468B464B4640464946FDF71CF82C
:1035D0006B4B002206460F46FCF760FE52465B46E8
:1035E000FCF75CFE002004460D4602460B464046B2
:1035F0004946FDF709F8624B80468946002220467D
:103600002946FCF749FE32463B46FCF745FE02469A
:103610000B4650465946FCF73FFE53EC182BFCF77F
:10362000F3FF224606460F462B4651EC190BFCF7DA
:10363000EBFF02460B4630463946FCF72FFE0646A6
:103640000F4602460B4640464946FCF727FE3EA37E
:10365000D3E90023002004460D46FCF7D5FF42467F
:1036600041EC180B4B4620462946FCF715FE024656
:103670000B4630463946FCF70FFE35A3D3E900234D
:10368000FCF7C2FF34A3D3E9002306460F462046C9
:103690002946FCF7B9FF02460B4630463946FCF78F
:1036A000FDFD079A374B1344D3E90023FCF7F6FDE1
:1036B000824605988B46FCF73DFF079A324B134430
:1036C000D3E9008906460F4652465B4651EC180B7B
:1036D000FCF7E4FD42464B46FCF7E0FD32463B4634
:1036E000FCF7DCFD002032463B4604460D46FCF765
:1036F000D3FD42464B46FCF7CFFD53EC182BFCF7AD
:10370000CBFD02460B465046594610E60124A1E681
:103710009FED137B17E600BFEF4E454A287ECA3F58
:1037200065DBC9934A86CD3F01411DA96074D13F35
:103730004D268F515555D53FFFAB6FDBB66DDB3F47
:10374000033333333333E33F000000E009C7EE3F78
:10375000FD033ADC09C7EE3FF5015B14E02F3EBEE6
:10376000000000000000F03F0000F07F0000404338
:103770008E98030079B60B00C83E00080000F03FA9
:1037800000000840E83E0008D83E0008B3A3D3E993
:10379000002340464946FCF781FD224641EC1A0BC6
:1037A0002B4630463946FCF777FD02460B4651EC76
:1037B0001A0BFDF7B9F900287FF404AEA24A2BF0EA
:1037C0000043934240F307811B15A3F2FE334FF4ED
:1037D000801A4AFA03FADA44CAF30A519B48A1F262
:1037E000FF31084100EA0A03CAF3130AC1F11401C8
:1037F0004AF4801A4AFA01FABBF1000F4FF00002B6
:1038000020462946B8BFCAF1000AFCF745FD41EC45
:10381000190B42464B4651EC190BFCF73FFD7AA3BE
:10382000D3E90023002004460D46FCF7EDFE53ECDF
:10383000192B06460F4620462946FCF72DFD024669
:103840000B4640464946FCF727FD71A3D3E9002308
:10385000FCF7DAFE70A3D3E90023804689462046B0
:103860002946FCF7D1FE02460B4640464946FCF786
:1038700015FD04460D4602460B4630463946FCF718
:103880000DFD32463B4680468946FCF705FD024663
:103890000B4620462946FCF7FFFC424606460F46EB
:1038A0004B4640464946FCF7AFFE5DA3D3E90023F3
:1038B00004460D46FCF7A8FE5BA3D3E90023FCF702
:1038C000EBFC22462B46FCF79FFE59A3D3E90023CD
:1038D000FCF7E4FC22462B46FCF796FE56A3D3E900
:1038E0000023FCF7D9FC22462B46FCF78DFE54A39F
:1038F000D3E90023FCF7D2FC22462B46FCF784FEDA
:1039000002460B4640464946FCF7C6FC04460D46B7
:1039100002460B4640464946FCF776FE002241EC43
:10392000190B4FF0804320462946FCF7B5FC0246B0
:103930000B4651EC190BFCF791FF324604460D463D
:103940003B4640464946FCF75FFE32463B46FCF7A5
:10395000A5FC02460B4620462946FCF79DFC424644
:103960004B46FCF799FC0B46024639490020FCF710
:1039700093FC41EC100B10EE903A03EB0A53B3F5B5
:10398000801F2BDA504600F077F851EC100B53EC07
:10399000182BFFF7EEBB2F4B21F000469E427FF71E
:1039A0000DAF2D4B0B44034309D051EC180B0022F3
:1039B0000023FDF79BF8003818BF012048E4224699
:1039C0002B46FCF769FC42464B46FDF7A3F800285E
:1039D0003FF4F4AEE9E74FF0000A1AE751EC100BA0
:1039E0001946D4E71A490020FFF731BB0020002117
:1039F000FFF72DBB30463946FFF729BB0492FFF78E
:103A00007BBB0023FFF765BB00000000432EE63FB1
:103A1000EF39FAFE422EE63F396CA80C615C20BEFD
:103A2000D0A4BE726937663EF16BD2C541BDBB3EC4
:103A30002CDE25AF6A56113F93BDBE166CC1663FA2
:103A40003E5555555555C53F0000E03F0000F0FF7D
:103A50000000F03FFFCB904000346F3FFE822B65AB
:103A60004715973C51EC100B10EE102A21F0004343
:103A700043EC102B7047000070B555EC104BC5F3AC
:103A80000A5106462B4699B925F0004323433FD0FF
:103A9000354B294610EE100A0022FCF7B5FD334BDA
:103AA0009E4204460D4610DA27A3D3E900231FE007
:103AB00040F2FF7291420CD110EE102A20462946A6
:103AC000FCF7ECFB04460D4622E00B46C1F30A511D
:103AD00036394CF2503296420DDD002D1CA1D1E951
:103AE000000102DA1CA1D1E9000119A3D3E90023E6
:103AF000FCF78AFDE6E7721840F2FE718A42ECDCC0
:103B0000002A08DD23F0FF4323F4E00343EA0255D3
:103B100045EC104B70BD12F1350F08DA002D0AA1EB
:103B2000D1E90001C0DA0EA1D1E90001BCE723F020
:103B3000FF43363223F4E00343EA025120460C4BA4
:103B40000022D5E7AFF3008059F3F8C21F6EA5013C
:103B50009C7500883CE4377E9C7500883CE437FE09
:103B600059F3F8C21F6EA58100005043B03CFFFF1F
:103B70000000903C70B504460D461646FEF750FD19
:103B800029460660204670BD37B514461D4608B16B
:103B900003F10043CDE90023DDE900232046294657
:103BA000FCF732FD222203B0BDE83040FFF7E2BF50
:103BB00008B500224FF08053FFF7E6FF41EC100BF1
:103BC00008BD08B500224FF0E043FFF7DDFF41ECF0
:103BD000100B08BD2DE9F84F55EC104B674EAE4366
:103BE00010EE100A10EE102A29462B460DD1FCF7D4
:103BF0000BFD02460B4620462946FCF74FFB0446C8
:103C00000D4645EC104BBDE8F88F002D0BDC25F080
:103C100000462643F5D035B1FCF73EFB02460B4685
:103C2000FCF71CFEEBE7091500F08D80C3F31303CE
:103C3000A1F2FF3643F48013C9075CBF5B0003EBBE
:103C4000D2734FEA430358BF5200002503EBD273EF
:103C5000761052004FF0160EAC464FF400110CEBEC
:103C600001009842DEBF1B1A00EB010C6D185B00CF
:103C7000BEF1010E03EBD2734FEA51014FEA42024B
:103C8000EDD1744620274FF00041634501EB0E0053
:103C900002DC13D1904211D8002800EB010E57DA54
:103CA000BEF1000F54DB0CF10108A3EB0C039042B2
:103CB00088BF03F1FF33121A0C44C4465B00013F76
:103CC00003EBD2734FEA51014FEA4202DDD11343B5
:103CD0001BD0DFF8ACA0DFF8ACB0DAE90001DBE91B
:103CE0000023FCF7D9FADAE9008902460B46404680
:103CF0004946FCF705FF40B1B4F1FF3FDAE90001A6
:103D0000DBE9002326D101353C466A106308E90748
:103D100002F17F5202F5001248BF43F0004302EB6C
:103D200006551C466DE7D30A15385205002BFAD00C
:103D3000DC020AD5C1F1200422FA04F44D1E8A40A7
:103D40002343411B72E70846F0E75B000131EFE7D0
:103D5000E046AAE7FCF7A2FADAE9008902460B4638
:103D600040464946FCF7C2FE20B1A01C08BF013501
:103D70000234CAE7013424F00104C6E70000F07FF2
:103D80006000002068000020F8B500BFF8BC08BC47
:103D90009E467047F8B500BFF8BC08BC9E46704709
:103DA00041542B5253540D0A0000000041540D0A97
:103DB000000000004F4B0D0A0000000041542B434F
:103DC000574D4F44453D310D0A00000041542B43EF
:103DD000574A41503D222573222C222573220D0A79
:103DE0000000000041542B4349504D55583D300DC3
:103DF0000A00000041542B43495053544152543D52
:103E000022544350222C223138342E3130362E3178
:103E100035332E313439222C38300D0A00000000A1
:103E2000474554202F7570646174653F6170695F08
:103E30006B65793D2573266669656C6425643D254F
:103E4000750D0A0041542B43495053454E443D25BE
:103E5000640D0A003E00000053454E44204F4B0DB8
:103E60000A000000434C4F53454400006D616D61F2
:103E70006D6F70617373776F726400006F776F009E
:103E8000424C4838514F3653464332384F59584FB9
:103E900000232D302B2000686C4C0065666745467A
:103EA00047003031323334353637383941424344B4
:103EB0004546003031323334353637383961626344
:103EC0006465660000000000000000000000F03F94
:103ED000000000000000F83F0000000000000000AB
:103EE0000000004003B8E23F0000000000000000B6
:083EF00006D0CF43EBFD4C3E70
:043EF800C5010008F8
:043EFC00A101000818
:103F0000780C00000100000001000000000000002B
:103F1000FC01002064020020CC0200200000000010
:103F20000000000000000000000000000000000091
:103F30000000000000000000000000000000000081
:103F40000000000000000000000000000000000071
:103F500000000000000000000C0000200000000035
:103F6000000000000000F03F59F3F8C21F6EA501E9
:040000050800256565
:00000001FF
